{
  "_format": "hh-sol-artifact-1",
  "contractName": "CeltMinter",
  "sourceName": "contracts/CeltMinter.sol",
  "abi": [
    {
      "inputs": [
        {
          "internalType": "address",
          "name": "tokenContract",
          "type": "address"
        }
      ],
      "stateMutability": "nonpayable",
      "type": "constructor"
    },
    {
      "anonymous": false,
      "inputs": [
        {
          "indexed": true,
          "internalType": "address",
          "name": "account",
          "type": "address"
        },
        {
          "indexed": true,
          "internalType": "address",
          "name": "operator",
          "type": "address"
        },
        {
          "indexed": false,
          "internalType": "bool",
          "name": "approved",
          "type": "bool"
        }
      ],
      "name": "ApprovalForAll",
      "type": "event"
    },
    {
      "anonymous": false,
      "inputs": [
        {
          "indexed": true,
          "internalType": "address",
          "name": "previousOwner",
          "type": "address"
        },
        {
          "indexed": true,
          "internalType": "address",
          "name": "newOwner",
          "type": "address"
        }
      ],
      "name": "OwnershipTransferred",
      "type": "event"
    },
    {
      "anonymous": false,
      "inputs": [
        {
          "indexed": true,
          "internalType": "address",
          "name": "operator",
          "type": "address"
        },
        {
          "indexed": true,
          "internalType": "address",
          "name": "from",
          "type": "address"
        },
        {
          "indexed": true,
          "internalType": "address",
          "name": "to",
          "type": "address"
        },
        {
          "indexed": false,
          "internalType": "uint256[]",
          "name": "ids",
          "type": "uint256[]"
        },
        {
          "indexed": false,
          "internalType": "uint256[]",
          "name": "values",
          "type": "uint256[]"
        }
      ],
      "name": "TransferBatch",
      "type": "event"
    },
    {
      "anonymous": false,
      "inputs": [
        {
          "indexed": true,
          "internalType": "address",
          "name": "operator",
          "type": "address"
        },
        {
          "indexed": true,
          "internalType": "address",
          "name": "from",
          "type": "address"
        },
        {
          "indexed": true,
          "internalType": "address",
          "name": "to",
          "type": "address"
        },
        {
          "indexed": false,
          "internalType": "uint256",
          "name": "id",
          "type": "uint256"
        },
        {
          "indexed": false,
          "internalType": "uint256",
          "name": "value",
          "type": "uint256"
        }
      ],
      "name": "TransferSingle",
      "type": "event"
    },
    {
      "anonymous": false,
      "inputs": [
        {
          "indexed": false,
          "internalType": "string",
          "name": "value",
          "type": "string"
        },
        {
          "indexed": true,
          "internalType": "uint256",
          "name": "id",
          "type": "uint256"
        }
      ],
      "name": "URI",
      "type": "event"
    },
    {
      "inputs": [
        {
          "internalType": "address",
          "name": "account",
          "type": "address"
        },
        {
          "internalType": "uint256",
          "name": "id",
          "type": "uint256"
        }
      ],
      "name": "balanceOf",
      "outputs": [
        {
          "internalType": "uint256",
          "name": "",
          "type": "uint256"
        }
      ],
      "stateMutability": "view",
      "type": "function"
    },
    {
      "inputs": [
        {
          "internalType": "address[]",
          "name": "accounts",
          "type": "address[]"
        },
        {
          "internalType": "uint256[]",
          "name": "ids",
          "type": "uint256[]"
        }
      ],
      "name": "balanceOfBatch",
      "outputs": [
        {
          "internalType": "uint256[]",
          "name": "",
          "type": "uint256[]"
        }
      ],
      "stateMutability": "view",
      "type": "function"
    },
    {
      "inputs": [
        {
          "internalType": "uint256",
          "name": "amount",
          "type": "uint256"
        }
      ],
      "name": "claim",
      "outputs": [],
      "stateMutability": "payable",
      "type": "function"
    },
    {
      "inputs": [
        {
          "internalType": "address",
          "name": "account",
          "type": "address"
        },
        {
          "internalType": "address",
          "name": "operator",
          "type": "address"
        }
      ],
      "name": "isApprovedForAll",
      "outputs": [
        {
          "internalType": "bool",
          "name": "",
          "type": "bool"
        }
      ],
      "stateMutability": "view",
      "type": "function"
    },
    {
      "inputs": [],
      "name": "owner",
      "outputs": [
        {
          "internalType": "address",
          "name": "",
          "type": "address"
        }
      ],
      "stateMutability": "view",
      "type": "function"
    },
    {
      "inputs": [],
      "name": "renounceOwnership",
      "outputs": [],
      "stateMutability": "nonpayable",
      "type": "function"
    },
    {
      "inputs": [
        {
          "internalType": "address",
          "name": "from",
          "type": "address"
        },
        {
          "internalType": "address",
          "name": "to",
          "type": "address"
        },
        {
          "internalType": "uint256[]",
          "name": "ids",
          "type": "uint256[]"
        },
        {
          "internalType": "uint256[]",
          "name": "amounts",
          "type": "uint256[]"
        },
        {
          "internalType": "bytes",
          "name": "data",
          "type": "bytes"
        }
      ],
      "name": "safeBatchTransferFrom",
      "outputs": [],
      "stateMutability": "nonpayable",
      "type": "function"
    },
    {
      "inputs": [
        {
          "internalType": "address",
          "name": "from",
          "type": "address"
        },
        {
          "internalType": "address",
          "name": "to",
          "type": "address"
        },
        {
          "internalType": "uint256",
          "name": "id",
          "type": "uint256"
        },
        {
          "internalType": "uint256",
          "name": "amount",
          "type": "uint256"
        },
        {
          "internalType": "bytes",
          "name": "data",
          "type": "bytes"
        }
      ],
      "name": "safeTransferFrom",
      "outputs": [],
      "stateMutability": "nonpayable",
      "type": "function"
    },
    {
      "inputs": [
        {
          "internalType": "address",
          "name": "operator",
          "type": "address"
        },
        {
          "internalType": "bool",
          "name": "approved",
          "type": "bool"
        }
      ],
      "name": "setApprovalForAll",
      "outputs": [],
      "stateMutability": "nonpayable",
      "type": "function"
    },
    {
      "inputs": [
        {
          "internalType": "uint256",
          "name": "airdropAmount",
          "type": "uint256"
        }
      ],
      "name": "setGreenFalAirdropAmount",
      "outputs": [],
      "stateMutability": "nonpayable",
      "type": "function"
    },
    {
      "inputs": [
        {
          "internalType": "bytes4",
          "name": "interfaceId",
          "type": "bytes4"
        }
      ],
      "name": "supportsInterface",
      "outputs": [
        {
          "internalType": "bool",
          "name": "",
          "type": "bool"
        }
      ],
      "stateMutability": "view",
      "type": "function"
    },
    {
      "inputs": [
        {
          "internalType": "address",
          "name": "newOwner",
          "type": "address"
        }
      ],
      "name": "transferOwnership",
      "outputs": [],
      "stateMutability": "nonpayable",
      "type": "function"
    },
    {
      "inputs": [
        {
          "internalType": "uint256",
          "name": "_tokenId",
          "type": "uint256"
        }
      ],
      "name": "uri",
      "outputs": [
        {
          "internalType": "string",
          "name": "",
          "type": "string"
        }
      ],
      "stateMutability": "view",
      "type": "function"
    },
    {
      "inputs": [
        {
          "internalType": "uint256",
          "name": "withdrawAmount",
          "type": "uint256"
        }
      ],
      "name": "withdraw",
      "outputs": [],
      "stateMutability": "nonpayable",
      "type": "function"
    }
  ],
  "bytecode": "0x6080604052670de0b6b3a764000060065566038d7ea4c680006007553480156200002857600080fd5b5060405162003af938038062003af983398181016040528101906200004e919062000293565b60405180608001604052806059815260200162003aa0605991396200007981620000e260201b60201c565b506200009a6200008e620000fe60201b60201c565b6200010660201b60201c565b80600560006101000a81548173ffffffffffffffffffffffffffffffffffffffff021916908373ffffffffffffffffffffffffffffffffffffffff160217905550506200037d565b8060029080519060200190620000fa929190620001cc565b5050565b600033905090565b6000600360009054906101000a900473ffffffffffffffffffffffffffffffffffffffff16905081600360006101000a81548173ffffffffffffffffffffffffffffffffffffffff021916908373ffffffffffffffffffffffffffffffffffffffff1602179055508173ffffffffffffffffffffffffffffffffffffffff168173ffffffffffffffffffffffffffffffffffffffff167f8be0079c531659141344cd1fd0a4f28419497f9722a3daafe3b4186f6b6457e060405160405180910390a35050565b828054620001da90620002f9565b90600052602060002090601f016020900481019282620001fe57600085556200024a565b82601f106200021957805160ff19168380011785556200024a565b828001600101855582156200024a579182015b82811115620002495782518255916020019190600101906200022c565b5b5090506200025991906200025d565b5090565b5b80821115620002785760008160009055506001016200025e565b5090565b6000815190506200028d8162000363565b92915050565b600060208284031215620002ac57620002ab6200035e565b5b6000620002bc848285016200027c565b91505092915050565b6000620002d282620002d9565b9050919050565b600073ffffffffffffffffffffffffffffffffffffffff82169050919050565b600060028204905060018216806200031257607f821691505b602082108114156200032957620003286200032f565b5b50919050565b7f4e487b7100000000000000000000000000000000000000000000000000000000600052602260045260246000fd5b600080fd5b6200036e81620002c5565b81146200037a57600080fd5b50565b613713806200038d6000396000f3fe6080604052600436106100dc5760003560e01c80634e1273f41161007f578063a22cb46511610059578063a22cb465146102ae578063e985e9c5146102d7578063f242432a14610314578063f2fde38b1461033d576100dc565b80634e1273f41461022f578063715018a61461026c5780638da5cb5b14610283576100dc565b80630ffcd681116100bb5780630ffcd681146101985780632e1a7d4d146101c15780632eb2c2d6146101ea578063379607f514610213576100dc565b8062fdd58e146100e157806301ffc9a71461011e5780630e89341c1461015b575b600080fd5b3480156100ed57600080fd5b5061010860048036038101906101039190612224565b610366565b6040516101159190612b9f565b60405180910390f35b34801561012a57600080fd5b5061014560048036038101906101409190612309565b61042f565b6040516101529190612942565b60405180910390f35b34801561016757600080fd5b50610182600480360381019061017d9190612363565b610511565b60405161018f919061295d565b60405180910390f35b3480156101a457600080fd5b506101bf60048036038101906101ba9190612363565b610542565b005b3480156101cd57600080fd5b506101e860048036038101906101e39190612363565b61060b565b005b3480156101f657600080fd5b50610211600480360381019061020c919061207e565b6107b5565b005b61022d60048036038101906102289190612363565b610856565b005b34801561023b57600080fd5b5061025660048036038101906102519190612264565b61096c565b60405161026391906128e9565b60405180910390f35b34801561027857600080fd5b50610281610a85565b005b34801561028f57600080fd5b50610298610b0d565b6040516102a591906127e3565b60405180910390f35b3480156102ba57600080fd5b506102d560048036038101906102d091906121e4565b610b37565b005b3480156102e357600080fd5b506102fe60048036038101906102f9919061203e565b610b4d565b60405161030b9190612942565b60405180910390f35b34801561032057600080fd5b5061033b6004803603810190610336919061214d565b610be1565b005b34801561034957600080fd5b50610364600480360381019061035f9190612011565b610c82565b005b60008073ffffffffffffffffffffffffffffffffffffffff168373ffffffffffffffffffffffffffffffffffffffff1614156103d7576040517f08c379a00000000000000000000000000000000000000000000000000000000081526004016103ce906129bf565b60405180910390fd5b60008083815260200190815260200160002060008473ffffffffffffffffffffffffffffffffffffffff1673ffffffffffffffffffffffffffffffffffffffff16815260200190815260200160002054905092915050565b60007fd9b67a26000000000000000000000000000000000000000000000000000000007bffffffffffffffffffffffffffffffffffffffffffffffffffffffff1916827bffffffffffffffffffffffffffffffffffffffffffffffffffffffff191614806104fa57507f0e89341c000000000000000000000000000000000000000000000000000000007bffffffffffffffffffffffffffffffffffffffffffffffffffffffff1916827bffffffffffffffffffffffffffffffffffffffffffffffffffffffff1916145b8061050a575061050982610d7a565b5b9050919050565b606061051c82610de4565b60405160200161052c91906127a1565b6040516020818303038152906040529050919050565b61054a610f45565b73ffffffffffffffffffffffffffffffffffffffff16610568610b0d565b73ffffffffffffffffffffffffffffffffffffffff16146105be576040517f08c379a00000000000000000000000000000000000000000000000000000000081526004016105b590612abf565b60405180910390fd5b60008111610601576040517f08c379a00000000000000000000000000000000000000000000000000000000081526004016105f890612adf565b60405180910390fd5b8060068190555050565b610613610f45565b73ffffffffffffffffffffffffffffffffffffffff16610631610b0d565b73ffffffffffffffffffffffffffffffffffffffff1614610687576040517f08c379a000000000000000000000000000000000000000000000000000000000815260040161067e90612abf565b60405180910390fd5b600081116106ca576040517f08c379a00000000000000000000000000000000000000000000000000000000081526004016106c1906129ff565b60405180910390fd5b478111156107445760003073ffffffffffffffffffffffffffffffffffffffff16476040516106f8906127ce565b60006040518083038185875af1925050503d8060008114610735576040519150601f19603f3d011682016040523d82523d6000602084013e61073a565b606091505b50509050506107b2565b60003073ffffffffffffffffffffffffffffffffffffffff168260405161076a906127ce565b60006040518083038185875af1925050503d80600081146107a7576040519150601f19603f3d011682016040523d82523d6000602084013e6107ac565b606091505b50509050505b50565b6107bd610f45565b73ffffffffffffffffffffffffffffffffffffffff168573ffffffffffffffffffffffffffffffffffffffff1614806108035750610802856107fd610f45565b610b4d565b5b610842576040517f08c379a000000000000000000000000000000000000000000000000000000000815260040161083990612a5f565b60405180910390fd5b61084f8585858585610f4d565b5050505050565b806007546108649190612d9f565b34146108a5576040517f08c379a000000000000000000000000000000000000000000000000000000000815260040161089c90612b3f565b60405180910390fd5b6103e881106108e9576040517f08c379a00000000000000000000000000000000000000000000000000000000081526004016108e090612a7f565b60405180910390fd5b60005b8181101561095c5761093f336109026004611261565b60016040518060400160405280600481526020017f307830300000000000000000000000000000000000000000000000000000000081525061126f565b6109496004611405565b808061095490612f14565b9150506108ec565b506109693360065461141b565b50565b606081518351146109b2576040517f08c379a00000000000000000000000000000000000000000000000000000000081526004016109a990612b1f565b60405180910390fd5b6000835167ffffffffffffffff8111156109cf576109ce61301b565b5b6040519080825280602002602001820160405280156109fd5781602001602082028036833780820191505090505b50905060005b8451811015610a7a57610a4a858281518110610a2257610a21612fec565b5b6020026020010151858381518110610a3d57610a3c612fec565b5b6020026020010151610366565b828281518110610a5d57610a5c612fec565b5b60200260200101818152505080610a7390612f14565b9050610a03565b508091505092915050565b610a8d610f45565b73ffffffffffffffffffffffffffffffffffffffff16610aab610b0d565b73ffffffffffffffffffffffffffffffffffffffff1614610b01576040517f08c379a0000000000000000000000000000000000000000000000000000000008152600401610af890612abf565b60405180910390fd5b610b0b60006114cf565b565b6000600360009054906101000a900473ffffffffffffffffffffffffffffffffffffffff16905090565b610b49610b42610f45565b8383611595565b5050565b6000600160008473ffffffffffffffffffffffffffffffffffffffff1673ffffffffffffffffffffffffffffffffffffffff16815260200190815260200160002060008373ffffffffffffffffffffffffffffffffffffffff1673ffffffffffffffffffffffffffffffffffffffff16815260200190815260200160002060009054906101000a900460ff16905092915050565b610be9610f45565b73ffffffffffffffffffffffffffffffffffffffff168573ffffffffffffffffffffffffffffffffffffffff161480610c2f5750610c2e85610c29610f45565b610b4d565b5b610c6e576040517f08c379a0000000000000000000000000000000000000000000000000000000008152600401610c6590612a1f565b60405180910390fd5b610c7b8585858585611702565b5050505050565b610c8a610f45565b73ffffffffffffffffffffffffffffffffffffffff16610ca8610b0d565b73ffffffffffffffffffffffffffffffffffffffff1614610cfe576040517f08c379a0000000000000000000000000000000000000000000000000000000008152600401610cf590612abf565b60405180910390fd5b600073ffffffffffffffffffffffffffffffffffffffff168173ffffffffffffffffffffffffffffffffffffffff161415610d6e576040517f08c379a0000000000000000000000000000000000000000000000000000000008152600401610d65906129df565b60405180910390fd5b610d77816114cf565b50565b60007f01ffc9a7000000000000000000000000000000000000000000000000000000007bffffffffffffffffffffffffffffffffffffffffffffffffffffffff1916827bffffffffffffffffffffffffffffffffffffffffffffffffffffffff1916149050919050565b60606000821415610e2c576040518060400160405280600181526020017f30000000000000000000000000000000000000000000000000000000000000008152509050610f40565b600082905060005b60008214610e5e578080610e4790612f14565b915050600a82610e579190612d6e565b9150610e34565b60008167ffffffffffffffff811115610e7a57610e7961301b565b5b6040519080825280601f01601f191660200182016040528015610eac5781602001600182028036833780820191505090505b5090505b60008514610f3957600182610ec59190612df9565b9150600a85610ed49190612f5d565b6030610ee09190612d18565b60f81b818381518110610ef657610ef5612fec565b5b60200101907effffffffffffffffffffffffffffffffffffffffffffffffffffffffffffff1916908160001a905350600a85610f329190612d6e565b9450610eb0565b8093505050505b919050565b600033905090565b8151835114610f91576040517f08c379a0000000000000000000000000000000000000000000000000000000008152600401610f8890612b5f565b60405180910390fd5b600073ffffffffffffffffffffffffffffffffffffffff168473ffffffffffffffffffffffffffffffffffffffff161415611001576040517f08c379a0000000000000000000000000000000000000000000000000000000008152600401610ff890612a3f565b60405180910390fd5b600061100b610f45565b905061101b818787878787611984565b60005b84518110156111cc57600085828151811061103c5761103b612fec565b5b60200260200101519050600085838151811061105b5761105a612fec565b5b60200260200101519050600080600084815260200190815260200160002060008b73ffffffffffffffffffffffffffffffffffffffff1673ffffffffffffffffffffffffffffffffffffffff168152602001908152602001600020549050818110156110fc576040517f08c379a00000000000000000000000000000000000000000000000000000000081526004016110f390612a9f565b60405180910390fd5b81810360008085815260200190815260200160002060008c73ffffffffffffffffffffffffffffffffffffffff1673ffffffffffffffffffffffffffffffffffffffff168152602001908152602001600020819055508160008085815260200190815260200160002060008b73ffffffffffffffffffffffffffffffffffffffff1673ffffffffffffffffffffffffffffffffffffffff16815260200190815260200160002060008282546111b19190612d18565b92505081905550505050806111c590612f14565b905061101e565b508473ffffffffffffffffffffffffffffffffffffffff168673ffffffffffffffffffffffffffffffffffffffff168273ffffffffffffffffffffffffffffffffffffffff167f4a39dc06d4c0dbc64b70af90fd698a233a518aa5d07e595d983b8c0526c8f7fb878760405161124392919061290b565b60405180910390a461125981878787878761198c565b505050505050565b600081600001549050919050565b600073ffffffffffffffffffffffffffffffffffffffff168473ffffffffffffffffffffffffffffffffffffffff1614156112df576040517f08c379a00000000000000000000000000000000000000000000000000000000081526004016112d690612b7f565b60405180910390fd5b60006112e9610f45565b905061130a816000876112fb88611b73565b61130488611b73565b87611984565b8260008086815260200190815260200160002060008773ffffffffffffffffffffffffffffffffffffffff1673ffffffffffffffffffffffffffffffffffffffff16815260200190815260200160002060008282546113699190612d18565b925050819055508473ffffffffffffffffffffffffffffffffffffffff16600073ffffffffffffffffffffffffffffffffffffffff168273ffffffffffffffffffffffffffffffffffffffff167fc3d58168c5ae7397731d063d5bbf3d657854427343f4c083240f7aacaa2d0f6287876040516113e7929190612bba565b60405180910390a46113fe81600087878787611bed565b5050505050565b6001816000016000828254019250508190555050565b600560009054906101000a900473ffffffffffffffffffffffffffffffffffffffff1673ffffffffffffffffffffffffffffffffffffffff1663a9059cbb83836040518363ffffffff1660e01b81526004016114789291906128c0565b602060405180830381600087803b15801561149257600080fd5b505af11580156114a6573d6000803e3d6000fd5b505050506040513d601f19601f820116820180604052508101906114ca91906122dc565b505050565b6000600360009054906101000a900473ffffffffffffffffffffffffffffffffffffffff16905081600360006101000a81548173ffffffffffffffffffffffffffffffffffffffff021916908373ffffffffffffffffffffffffffffffffffffffff1602179055508173ffffffffffffffffffffffffffffffffffffffff168173ffffffffffffffffffffffffffffffffffffffff167f8be0079c531659141344cd1fd0a4f28419497f9722a3daafe3b4186f6b6457e060405160405180910390a35050565b8173ffffffffffffffffffffffffffffffffffffffff168373ffffffffffffffffffffffffffffffffffffffff161415611604576040517f08c379a00000000000000000000000000000000000000000000000000000000081526004016115fb90612aff565b60405180910390fd5b80600160008573ffffffffffffffffffffffffffffffffffffffff1673ffffffffffffffffffffffffffffffffffffffff16815260200190815260200160002060008473ffffffffffffffffffffffffffffffffffffffff1673ffffffffffffffffffffffffffffffffffffffff16815260200190815260200160002060006101000a81548160ff0219169083151502179055508173ffffffffffffffffffffffffffffffffffffffff168373ffffffffffffffffffffffffffffffffffffffff167f17307eab39ab6107e8899845ad3d59bd9653f200f220920489ca2b5937696c31836040516116f59190612942565b60405180910390a3505050565b600073ffffffffffffffffffffffffffffffffffffffff168473ffffffffffffffffffffffffffffffffffffffff161415611772576040517f08c379a000000000000000000000000000000000000000000000000000000000815260040161176990612a3f565b60405180910390fd5b600061177c610f45565b905061179c81878761178d88611b73565b61179688611b73565b87611984565b600080600086815260200190815260200160002060008873ffffffffffffffffffffffffffffffffffffffff1673ffffffffffffffffffffffffffffffffffffffff16815260200190815260200160002054905083811015611833576040517f08c379a000000000000000000000000000000000000000000000000000000000815260040161182a90612a9f565b60405180910390fd5b83810360008087815260200190815260200160002060008973ffffffffffffffffffffffffffffffffffffffff1673ffffffffffffffffffffffffffffffffffffffff168152602001908152602001600020819055508360008087815260200190815260200160002060008873ffffffffffffffffffffffffffffffffffffffff1673ffffffffffffffffffffffffffffffffffffffff16815260200190815260200160002060008282546118e89190612d18565b925050819055508573ffffffffffffffffffffffffffffffffffffffff168773ffffffffffffffffffffffffffffffffffffffff168373ffffffffffffffffffffffffffffffffffffffff167fc3d58168c5ae7397731d063d5bbf3d657854427343f4c083240f7aacaa2d0f628888604051611965929190612bba565b60405180910390a461197b828888888888611bed565b50505050505050565b505050505050565b6119ab8473ffffffffffffffffffffffffffffffffffffffff16611dd4565b15611b6b578373ffffffffffffffffffffffffffffffffffffffff1663bc197c8187878686866040518663ffffffff1660e01b81526004016119f19594939291906127fe565b602060405180830381600087803b158015611a0b57600080fd5b505af1925050508015611a3c57506040513d601f19601f82011682018060405250810190611a399190612336565b60015b611ae257611a4861304a565b806308c379a01415611aa55750611a5d6135eb565b80611a685750611aa7565b806040517f08c379a0000000000000000000000000000000000000000000000000000000008152600401611a9c919061295d565b60405180910390fd5b505b6040517f08c379a0000000000000000000000000000000000000000000000000000000008152600401611ad99061297f565b60405180910390fd5b63bc197c8160e01b7bffffffffffffffffffffffffffffffffffffffffffffffffffffffff1916817bffffffffffffffffffffffffffffffffffffffffffffffffffffffff191614611b69576040517f08c379a0000000000000000000000000000000000000000000000000000000008152600401611b609061299f565b60405180910390fd5b505b505050505050565b60606000600167ffffffffffffffff811115611b9257611b9161301b565b5b604051908082528060200260200182016040528015611bc05781602001602082028036833780820191505090505b5090508281600081518110611bd857611bd7612fec565b5b60200260200101818152505080915050919050565b611c0c8473ffffffffffffffffffffffffffffffffffffffff16611dd4565b15611dcc578373ffffffffffffffffffffffffffffffffffffffff1663f23a6e6187878686866040518663ffffffff1660e01b8152600401611c52959493929190612866565b602060405180830381600087803b158015611c6c57600080fd5b505af1925050508015611c9d57506040513d601f19601f82011682018060405250810190611c9a9190612336565b60015b611d4357611ca961304a565b806308c379a01415611d065750611cbe6135eb565b80611cc95750611d08565b806040517f08c379a0000000000000000000000000000000000000000000000000000000008152600401611cfd919061295d565b60405180910390fd5b505b6040517f08c379a0000000000000000000000000000000000000000000000000000000008152600401611d3a9061297f565b60405180910390fd5b63f23a6e6160e01b7bffffffffffffffffffffffffffffffffffffffffffffffffffffffff1916817bffffffffffffffffffffffffffffffffffffffffffffffffffffffff191614611dca576040517f08c379a0000000000000000000000000000000000000000000000000000000008152600401611dc19061299f565b60405180910390fd5b505b505050505050565b600080823b905060008111915050919050565b6000611dfa611df584612c08565b612be3565b90508083825260208201905082856020860282011115611e1d57611e1c613071565b5b60005b85811015611e4d5781611e338882611f09565b845260208401935060208301925050600181019050611e20565b5050509392505050565b6000611e6a611e6584612c34565b612be3565b90508083825260208201905082856020860282011115611e8d57611e8c613071565b5b60005b85811015611ebd5781611ea38882611ffc565b845260208401935060208301925050600181019050611e90565b5050509392505050565b6000611eda611ed584612c60565b612be3565b905082815260208101848484011115611ef657611ef5613076565b5b611f01848285612ea1565b509392505050565b600081359050611f1881613681565b92915050565b600082601f830112611f3357611f3261306c565b5b8135611f43848260208601611de7565b91505092915050565b600082601f830112611f6157611f6061306c565b5b8135611f71848260208601611e57565b91505092915050565b600081359050611f8981613698565b92915050565b600081519050611f9e81613698565b92915050565b600081359050611fb3816136af565b92915050565b600081519050611fc8816136af565b92915050565b600082601f830112611fe357611fe261306c565b5b8135611ff3848260208601611ec7565b91505092915050565b60008135905061200b816136c6565b92915050565b60006020828403121561202757612026613080565b5b600061203584828501611f09565b91505092915050565b6000806040838503121561205557612054613080565b5b600061206385828601611f09565b925050602061207485828601611f09565b9150509250929050565b600080600080600060a0868803121561209a57612099613080565b5b60006120a888828901611f09565b95505060206120b988828901611f09565b945050604086013567ffffffffffffffff8111156120da576120d961307b565b5b6120e688828901611f4c565b935050606086013567ffffffffffffffff8111156121075761210661307b565b5b61211388828901611f4c565b925050608086013567ffffffffffffffff8111156121345761213361307b565b5b61214088828901611fce565b9150509295509295909350565b600080600080600060a0868803121561216957612168613080565b5b600061217788828901611f09565b955050602061218888828901611f09565b945050604061219988828901611ffc565b93505060606121aa88828901611ffc565b925050608086013567ffffffffffffffff8111156121cb576121ca61307b565b5b6121d788828901611fce565b9150509295509295909350565b600080604083850312156121fb576121fa613080565b5b600061220985828601611f09565b925050602061221a85828601611f7a565b9150509250929050565b6000806040838503121561223b5761223a613080565b5b600061224985828601611f09565b925050602061225a85828601611ffc565b9150509250929050565b6000806040838503121561227b5761227a613080565b5b600083013567ffffffffffffffff8111156122995761229861307b565b5b6122a585828601611f1e565b925050602083013567ffffffffffffffff8111156122c6576122c561307b565b5b6122d285828601611f4c565b9150509250929050565b6000602082840312156122f2576122f1613080565b5b600061230084828501611f8f565b91505092915050565b60006020828403121561231f5761231e613080565b5b600061232d84828501611fa4565b91505092915050565b60006020828403121561234c5761234b613080565b5b600061235a84828501611fb9565b91505092915050565b60006020828403121561237957612378613080565b5b600061238784828501611ffc565b91505092915050565b600061239c8383612783565b60208301905092915050565b6123b181612e2d565b82525050565b60006123c282612ca1565b6123cc8185612ccf565b93506123d783612c91565b8060005b838110156124085781516123ef8882612390565b97506123fa83612cc2565b9250506001810190506123db565b5085935050505092915050565b61241e81612e3f565b82525050565b600061242f82612cac565b6124398185612ce0565b9350612449818560208601612eb0565b61245281613085565b840191505092915050565b600061246882612cb7565b6124728185612cfc565b9350612482818560208601612eb0565b61248b81613085565b840191505092915050565b60006124a182612cb7565b6124ab8185612d0d565b93506124bb818560208601612eb0565b80840191505092915050565b60006124d4603483612cfc565b91506124df826130a3565b604082019050919050565b60006124f7602883612cfc565b9150612502826130f2565b604082019050919050565b600061251a602b83612cfc565b915061252582613141565b604082019050919050565b600061253d602683612cfc565b915061254882613190565b604082019050919050565b6000612560605983612d0d565b915061256b826131df565b605982019050919050565b6000612583602383612cfc565b915061258e82613254565b604082019050919050565b60006125a6602983612cfc565b91506125b1826132a3565b604082019050919050565b60006125c9602583612cfc565b91506125d4826132f2565b604082019050919050565b60006125ec603283612cfc565b91506125f782613341565b604082019050919050565b600061260f601a83612cfc565b915061261a82613390565b602082019050919050565b6000612632602a83612cfc565b915061263d826133b9565b604082019050919050565b6000612655600583612d0d565b915061266082613408565b600582019050919050565b6000612678602083612cfc565b915061268382613431565b602082019050919050565b600061269b600083612cf1565b91506126a68261345a565b600082019050919050565b60006126be601a83612cfc565b91506126c98261345d565b602082019050919050565b60006126e1602983612cfc565b91506126ec82613486565b604082019050919050565b6000612704602983612cfc565b915061270f826134d5565b604082019050919050565b6000612727601b83612cfc565b915061273282613524565b602082019050919050565b600061274a602883612cfc565b91506127558261354d565b604082019050919050565b600061276d602183612cfc565b91506127788261359c565b604082019050919050565b61278c81612e97565b82525050565b61279b81612e97565b82525050565b60006127ac82612553565b91506127b88284612496565b91506127c382612648565b915081905092915050565b60006127d98261268e565b9150819050919050565b60006020820190506127f860008301846123a8565b92915050565b600060a08201905061281360008301886123a8565b61282060208301876123a8565b818103604083015261283281866123b7565b9050818103606083015261284681856123b7565b9050818103608083015261285a8184612424565b90509695505050505050565b600060a08201905061287b60008301886123a8565b61288860208301876123a8565b6128956040830186612792565b6128a26060830185612792565b81810360808301526128b48184612424565b90509695505050505050565b60006040820190506128d560008301856123a8565b6128e26020830184612792565b9392505050565b6000602082019050818103600083015261290381846123b7565b905092915050565b6000604082019050818103600083015261292581856123b7565b9050818103602083015261293981846123b7565b90509392505050565b60006020820190506129576000830184612415565b92915050565b60006020820190508181036000830152612977818461245d565b905092915050565b60006020820190508181036000830152612998816124c7565b9050919050565b600060208201905081810360008301526129b8816124ea565b9050919050565b600060208201905081810360008301526129d88161250d565b9050919050565b600060208201905081810360008301526129f881612530565b9050919050565b60006020820190508181036000830152612a1881612576565b9050919050565b60006020820190508181036000830152612a3881612599565b9050919050565b60006020820190508181036000830152612a58816125bc565b9050919050565b60006020820190508181036000830152612a78816125df565b9050919050565b60006020820190508181036000830152612a9881612602565b9050919050565b60006020820190508181036000830152612ab881612625565b9050919050565b60006020820190508181036000830152612ad88161266b565b9050919050565b60006020820190508181036000830152612af8816126b1565b9050919050565b60006020820190508181036000830152612b18816126d4565b9050919050565b60006020820190508181036000830152612b38816126f7565b9050919050565b60006020820190508181036000830152612b588161271a565b9050919050565b60006020820190508181036000830152612b788161273d565b9050919050565b60006020820190508181036000830152612b9881612760565b9050919050565b6000602082019050612bb46000830184612792565b92915050565b6000604082019050612bcf6000830185612792565b612bdc6020830184612792565b9392505050565b6000612bed612bfe565b9050612bf98282612ee3565b919050565b6000604051905090565b600067ffffffffffffffff821115612c2357612c2261301b565b5b602082029050602081019050919050565b600067ffffffffffffffff821115612c4f57612c4e61301b565b5b602082029050602081019050919050565b600067ffffffffffffffff821115612c7b57612c7a61301b565b5b612c8482613085565b9050602081019050919050565b6000819050602082019050919050565b600081519050919050565b600081519050919050565b600081519050919050565b6000602082019050919050565b600082825260208201905092915050565b600082825260208201905092915050565b600081905092915050565b600082825260208201905092915050565b600081905092915050565b6000612d2382612e97565b9150612d2e83612e97565b9250827fffffffffffffffffffffffffffffffffffffffffffffffffffffffffffffffff03821115612d6357612d62612f8e565b5b828201905092915050565b6000612d7982612e97565b9150612d8483612e97565b925082612d9457612d93612fbd565b5b828204905092915050565b6000612daa82612e97565b9150612db583612e97565b9250817fffffffffffffffffffffffffffffffffffffffffffffffffffffffffffffffff0483118215151615612dee57612ded612f8e565b5b828202905092915050565b6000612e0482612e97565b9150612e0f83612e97565b925082821015612e2257612e21612f8e565b5b828203905092915050565b6000612e3882612e77565b9050919050565b60008115159050919050565b60007fffffffff0000000000000000000000000000000000000000000000000000000082169050919050565b600073ffffffffffffffffffffffffffffffffffffffff82169050919050565b6000819050919050565b82818337600083830152505050565b60005b83811015612ece578082015181840152602081019050612eb3565b83811115612edd576000848401525b50505050565b612eec82613085565b810181811067ffffffffffffffff82111715612f0b57612f0a61301b565b5b80604052505050565b6000612f1f82612e97565b91507fffffffffffffffffffffffffffffffffffffffffffffffffffffffffffffffff821415612f5257612f51612f8e565b5b600182019050919050565b6000612f6882612e97565b9150612f7383612e97565b925082612f8357612f82612fbd565b5b828206905092915050565b7f4e487b7100000000000000000000000000000000000000000000000000000000600052601160045260246000fd5b7f4e487b7100000000000000000000000000000000000000000000000000000000600052601260045260246000fd5b7f4e487b7100000000000000000000000000000000000000000000000000000000600052603260045260246000fd5b7f4e487b7100000000000000000000000000000000000000000000000000000000600052604160045260246000fd5b600060033d11156130695760046000803e613066600051613096565b90505b90565b600080fd5b600080fd5b600080fd5b600080fd5b600080fd5b6000601f19601f8301169050919050565b60008160e01c9050919050565b7f455243313135353a207472616e7366657220746f206e6f6e204552433131353560008201527f526563656976657220696d706c656d656e746572000000000000000000000000602082015250565b7f455243313135353a204552433131353552656365697665722072656a6563746560008201527f6420746f6b656e73000000000000000000000000000000000000000000000000602082015250565b7f455243313135353a2062616c616e636520717565727920666f7220746865207a60008201527f65726f2061646472657373000000000000000000000000000000000000000000602082015250565b7f4f776e61626c653a206e6577206f776e657220697320746865207a65726f206160008201527f6464726573730000000000000000000000000000000000000000000000000000602082015250565b7f68747470733a2f2f62616679626569636c37746e75647778686d79656e716c3260008201527f7a327165726266646534377a71766574337779626a67676b6c696a7371366f6a60208201527f7366342e697066732e6e667473746f726167652e6c696e6b2f00000000000000604082015250565b7f43656c744d696e7465723a20696e76616c696420776974686472617720616d6f60008201527f756e740000000000000000000000000000000000000000000000000000000000602082015250565b7f455243313135353a2063616c6c6572206973206e6f74206f776e6572206e6f7260008201527f20617070726f7665640000000000000000000000000000000000000000000000602082015250565b7f455243313135353a207472616e7366657220746f20746865207a65726f20616460008201527f6472657373000000000000000000000000000000000000000000000000000000602082015250565b7f455243313135353a207472616e736665722063616c6c6572206973206e6f742060008201527f6f776e6572206e6f7220617070726f7665640000000000000000000000000000602082015250565b7f43656c744d696e7465723a206578636363656420616d6f756e74000000000000600082015250565b7f455243313135353a20696e73756666696369656e742062616c616e636520666f60008201527f72207472616e7366657200000000000000000000000000000000000000000000602082015250565b7f2e6a736f6e000000000000000000000000000000000000000000000000000000600082015250565b7f4f776e61626c653a2063616c6c6572206973206e6f7420746865206f776e6572600082015250565b50565b7f43656c744d696e7465723a20696e76616c696420616d6f756e74000000000000600082015250565b7f455243313135353a2073657474696e6720617070726f76616c2073746174757360008201527f20666f722073656c660000000000000000000000000000000000000000000000602082015250565b7f455243313135353a206163636f756e747320616e6420696473206c656e67746860008201527f206d69736d617463680000000000000000000000000000000000000000000000602082015250565b7f43656c744d696e7465723a206e6f7420656e6f7567682066756e640000000000600082015250565b7f455243313135353a2069647320616e6420616d6f756e7473206c656e6774682060008201527f6d69736d61746368000000000000000000000000000000000000000000000000602082015250565b7f455243313135353a206d696e7420746f20746865207a65726f2061646472657360008201527f7300000000000000000000000000000000000000000000000000000000000000602082015250565b600060443d10156135fb5761367e565b613603612bfe565b60043d036004823e80513d602482011167ffffffffffffffff8211171561362b57505061367e565b808201805167ffffffffffffffff811115613649575050505061367e565b80602083010160043d03850181111561366657505050505061367e565b61367582602001850186612ee3565b82955050505050505b90565b61368a81612e2d565b811461369557600080fd5b50565b6136a181612e3f565b81146136ac57600080fd5b50565b6136b881612e4b565b81146136c357600080fd5b50565b6136cf81612e97565b81146136da57600080fd5b5056fea264697066735822122099ab298cbb400ac311f3baee06ffad63bd8ad7b09279c3f97bb629de94874b0464736f6c6343000807003368747470733a2f2f62616679626569636c37746e75647778686d79656e716c327a327165726266646534377a71766574337779626a67676b6c696a7371366f6a7366342e697066732e6e667473746f726167652e6c696e6b2f",
  "linkReferences": {},
  "deployedLinkReferences": {}
}