{
  "_format": "hh-sol-artifact-1",
  "contractName": "CeltMinter",
  "sourceName": "contracts/CeltMinter.sol",
  "abi": [
    {
      "inputs": [
        {
          "internalType": "address",
          "name": "tokenContract",
          "type": "address"
        }
      ],
      "stateMutability": "nonpayable",
      "type": "constructor"
    },
    {
      "anonymous": false,
      "inputs": [
        {
          "indexed": true,
          "internalType": "address",
          "name": "account",
          "type": "address"
        },
        {
          "indexed": true,
          "internalType": "address",
          "name": "operator",
          "type": "address"
        },
        {
          "indexed": false,
          "internalType": "bool",
          "name": "approved",
          "type": "bool"
        }
      ],
      "name": "ApprovalForAll",
      "type": "event"
    },
    {
      "anonymous": false,
      "inputs": [
        {
          "indexed": true,
          "internalType": "address",
          "name": "previousOwner",
          "type": "address"
        },
        {
          "indexed": true,
          "internalType": "address",
          "name": "newOwner",
          "type": "address"
        }
      ],
      "name": "OwnershipTransferred",
      "type": "event"
    },
    {
      "anonymous": false,
      "inputs": [
        {
          "indexed": true,
          "internalType": "address",
          "name": "operator",
          "type": "address"
        },
        {
          "indexed": true,
          "internalType": "address",
          "name": "from",
          "type": "address"
        },
        {
          "indexed": true,
          "internalType": "address",
          "name": "to",
          "type": "address"
        },
        {
          "indexed": false,
          "internalType": "uint256[]",
          "name": "ids",
          "type": "uint256[]"
        },
        {
          "indexed": false,
          "internalType": "uint256[]",
          "name": "values",
          "type": "uint256[]"
        }
      ],
      "name": "TransferBatch",
      "type": "event"
    },
    {
      "anonymous": false,
      "inputs": [
        {
          "indexed": true,
          "internalType": "address",
          "name": "operator",
          "type": "address"
        },
        {
          "indexed": true,
          "internalType": "address",
          "name": "from",
          "type": "address"
        },
        {
          "indexed": true,
          "internalType": "address",
          "name": "to",
          "type": "address"
        },
        {
          "indexed": false,
          "internalType": "uint256",
          "name": "id",
          "type": "uint256"
        },
        {
          "indexed": false,
          "internalType": "uint256",
          "name": "value",
          "type": "uint256"
        }
      ],
      "name": "TransferSingle",
      "type": "event"
    },
    {
      "anonymous": false,
      "inputs": [
        {
          "indexed": false,
          "internalType": "string",
          "name": "value",
          "type": "string"
        },
        {
          "indexed": true,
          "internalType": "uint256",
          "name": "id",
          "type": "uint256"
        }
      ],
      "name": "URI",
      "type": "event"
    },
    {
      "inputs": [
        {
          "internalType": "address",
          "name": "account",
          "type": "address"
        },
        {
          "internalType": "uint256",
          "name": "id",
          "type": "uint256"
        }
      ],
      "name": "balanceOf",
      "outputs": [
        {
          "internalType": "uint256",
          "name": "",
          "type": "uint256"
        }
      ],
      "stateMutability": "view",
      "type": "function"
    },
    {
      "inputs": [
        {
          "internalType": "address[]",
          "name": "accounts",
          "type": "address[]"
        },
        {
          "internalType": "uint256[]",
          "name": "ids",
          "type": "uint256[]"
        }
      ],
      "name": "balanceOfBatch",
      "outputs": [
        {
          "internalType": "uint256[]",
          "name": "",
          "type": "uint256[]"
        }
      ],
      "stateMutability": "view",
      "type": "function"
    },
    {
      "inputs": [
        {
          "internalType": "uint256",
          "name": "amount",
          "type": "uint256"
        }
      ],
      "name": "claim",
      "outputs": [],
      "stateMutability": "payable",
      "type": "function"
    },
    {
      "inputs": [
        {
          "internalType": "address",
          "name": "account",
          "type": "address"
        },
        {
          "internalType": "address",
          "name": "operator",
          "type": "address"
        }
      ],
      "name": "isApprovedForAll",
      "outputs": [
        {
          "internalType": "bool",
          "name": "",
          "type": "bool"
        }
      ],
      "stateMutability": "view",
      "type": "function"
    },
    {
      "inputs": [],
      "name": "owner",
      "outputs": [
        {
          "internalType": "address",
          "name": "",
          "type": "address"
        }
      ],
      "stateMutability": "view",
      "type": "function"
    },
    {
      "inputs": [],
      "name": "renounceOwnership",
      "outputs": [],
      "stateMutability": "nonpayable",
      "type": "function"
    },
    {
      "inputs": [
        {
          "internalType": "address",
          "name": "from",
          "type": "address"
        },
        {
          "internalType": "address",
          "name": "to",
          "type": "address"
        },
        {
          "internalType": "uint256[]",
          "name": "ids",
          "type": "uint256[]"
        },
        {
          "internalType": "uint256[]",
          "name": "amounts",
          "type": "uint256[]"
        },
        {
          "internalType": "bytes",
          "name": "data",
          "type": "bytes"
        }
      ],
      "name": "safeBatchTransferFrom",
      "outputs": [],
      "stateMutability": "nonpayable",
      "type": "function"
    },
    {
      "inputs": [
        {
          "internalType": "address",
          "name": "from",
          "type": "address"
        },
        {
          "internalType": "address",
          "name": "to",
          "type": "address"
        },
        {
          "internalType": "uint256",
          "name": "id",
          "type": "uint256"
        },
        {
          "internalType": "uint256",
          "name": "amount",
          "type": "uint256"
        },
        {
          "internalType": "bytes",
          "name": "data",
          "type": "bytes"
        }
      ],
      "name": "safeTransferFrom",
      "outputs": [],
      "stateMutability": "nonpayable",
      "type": "function"
    },
    {
      "inputs": [
        {
          "internalType": "address",
          "name": "operator",
          "type": "address"
        },
        {
          "internalType": "bool",
          "name": "approved",
          "type": "bool"
        }
      ],
      "name": "setApprovalForAll",
      "outputs": [],
      "stateMutability": "nonpayable",
      "type": "function"
    },
    {
      "inputs": [
        {
          "internalType": "uint256",
          "name": "fee",
          "type": "uint256"
        }
      ],
      "name": "setFee",
      "outputs": [],
      "stateMutability": "nonpayable",
      "type": "function"
    },
    {
      "inputs": [
        {
          "internalType": "uint256",
          "name": "airdropAmount",
          "type": "uint256"
        }
      ],
      "name": "setGreenFalAirdropAmount",
      "outputs": [],
      "stateMutability": "nonpayable",
      "type": "function"
    },
    {
      "inputs": [
        {
          "internalType": "bytes4",
          "name": "interfaceId",
          "type": "bytes4"
        }
      ],
      "name": "supportsInterface",
      "outputs": [
        {
          "internalType": "bool",
          "name": "",
          "type": "bool"
        }
      ],
      "stateMutability": "view",
      "type": "function"
    },
    {
      "inputs": [
        {
          "internalType": "address",
          "name": "newOwner",
          "type": "address"
        }
      ],
      "name": "transferOwnership",
      "outputs": [],
      "stateMutability": "nonpayable",
      "type": "function"
    },
    {
      "inputs": [
        {
          "internalType": "uint256",
          "name": "_tokenId",
          "type": "uint256"
        }
      ],
      "name": "uri",
      "outputs": [
        {
          "internalType": "string",
          "name": "",
          "type": "string"
        }
      ],
      "stateMutability": "view",
      "type": "function"
    },
    {
      "inputs": [
        {
          "internalType": "uint256",
          "name": "withdrawAmount",
          "type": "uint256"
        }
      ],
      "name": "withdraw",
      "outputs": [],
      "stateMutability": "nonpayable",
      "type": "function"
    }
  ],
  "bytecode": "0x608060405269021e19e0c9bab2400000600655662386f26fc100006007553480156200002a57600080fd5b5060405162003c0338038062003c03833981810160405281019062000050919062000295565b60405180608001604052806059815260200162003baa605991396200007b81620000e460201b60201c565b506200009c620000906200010060201b60201c565b6200010860201b60201c565b80600560006101000a81548173ffffffffffffffffffffffffffffffffffffffff021916908373ffffffffffffffffffffffffffffffffffffffff160217905550506200037f565b8060029080519060200190620000fc929190620001ce565b5050565b600033905090565b6000600360009054906101000a900473ffffffffffffffffffffffffffffffffffffffff16905081600360006101000a81548173ffffffffffffffffffffffffffffffffffffffff021916908373ffffffffffffffffffffffffffffffffffffffff1602179055508173ffffffffffffffffffffffffffffffffffffffff168173ffffffffffffffffffffffffffffffffffffffff167f8be0079c531659141344cd1fd0a4f28419497f9722a3daafe3b4186f6b6457e060405160405180910390a35050565b828054620001dc90620002fb565b90600052602060002090601f0160209004810192826200020057600085556200024c565b82601f106200021b57805160ff19168380011785556200024c565b828001600101855582156200024c579182015b828111156200024b5782518255916020019190600101906200022e565b5b5090506200025b91906200025f565b5090565b5b808211156200027a57600081600090555060010162000260565b5090565b6000815190506200028f8162000365565b92915050565b600060208284031215620002ae57620002ad62000360565b5b6000620002be848285016200027e565b91505092915050565b6000620002d482620002db565b9050919050565b600073ffffffffffffffffffffffffffffffffffffffff82169050919050565b600060028204905060018216806200031457607f821691505b602082108114156200032b576200032a62000331565b5b50919050565b7f4e487b7100000000000000000000000000000000000000000000000000000000600052602260045260246000fd5b600080fd5b6200037081620002c7565b81146200037c57600080fd5b50565b61381b806200038f6000396000f3fe6080604052600436106100e75760003560e01c80634e1273f41161008a578063a22cb46511610059578063a22cb465146102e2578063e985e9c51461030b578063f242432a14610348578063f2fde38b14610371576100e7565b80634e1273f41461023a57806369fe0e2d14610277578063715018a6146102a05780638da5cb5b146102b7576100e7565b80630ffcd681116100c65780630ffcd681146101a35780632e1a7d4d146101cc5780632eb2c2d6146101f5578063379607f51461021e576100e7565b8062fdd58e146100ec57806301ffc9a7146101295780630e89341c14610166575b600080fd5b3480156100f857600080fd5b50610113600480360381019061010e919061232c565b61039a565b6040516101209190612ca7565b60405180910390f35b34801561013557600080fd5b50610150600480360381019061014b9190612411565b610463565b60405161015d9190612a4a565b60405180910390f35b34801561017257600080fd5b5061018d6004803603810190610188919061246b565b610545565b60405161019a9190612a65565b60405180910390f35b3480156101af57600080fd5b506101ca60048036038101906101c5919061246b565b610576565b005b3480156101d857600080fd5b506101f360048036038101906101ee919061246b565b61063f565b005b34801561020157600080fd5b5061021c60048036038101906102179190612186565b6107e9565b005b6102386004803603810190610233919061246b565b61088a565b005b34801561024657600080fd5b50610261600480360381019061025c919061236c565b6109ab565b60405161026e91906129f1565b60405180910390f35b34801561028357600080fd5b5061029e6004803603810190610299919061246b565b610ac4565b005b3480156102ac57600080fd5b506102b5610b8d565b005b3480156102c357600080fd5b506102cc610c15565b6040516102d991906128eb565b60405180910390f35b3480156102ee57600080fd5b50610309600480360381019061030491906122ec565b610c3f565b005b34801561031757600080fd5b50610332600480360381019061032d9190612146565b610c55565b60405161033f9190612a4a565b60405180910390f35b34801561035457600080fd5b5061036f600480360381019061036a9190612255565b610ce9565b005b34801561037d57600080fd5b5061039860048036038101906103939190612119565b610d8a565b005b60008073ffffffffffffffffffffffffffffffffffffffff168373ffffffffffffffffffffffffffffffffffffffff16141561040b576040517f08c379a000000000000000000000000000000000000000000000000000000000815260040161040290612ac7565b60405180910390fd5b60008083815260200190815260200160002060008473ffffffffffffffffffffffffffffffffffffffff1673ffffffffffffffffffffffffffffffffffffffff16815260200190815260200160002054905092915050565b60007fd9b67a26000000000000000000000000000000000000000000000000000000007bffffffffffffffffffffffffffffffffffffffffffffffffffffffff1916827bffffffffffffffffffffffffffffffffffffffffffffffffffffffff1916148061052e57507f0e89341c000000000000000000000000000000000000000000000000000000007bffffffffffffffffffffffffffffffffffffffffffffffffffffffff1916827bffffffffffffffffffffffffffffffffffffffffffffffffffffffff1916145b8061053e575061053d82610e82565b5b9050919050565b606061055082610eec565b60405160200161056091906128a9565b6040516020818303038152906040529050919050565b61057e61104d565b73ffffffffffffffffffffffffffffffffffffffff1661059c610c15565b73ffffffffffffffffffffffffffffffffffffffff16146105f2576040517f08c379a00000000000000000000000000000000000000000000000000000000081526004016105e990612bc7565b60405180910390fd5b60008111610635576040517f08c379a000000000000000000000000000000000000000000000000000000000815260040161062c90612be7565b60405180910390fd5b8060068190555050565b61064761104d565b73ffffffffffffffffffffffffffffffffffffffff16610665610c15565b73ffffffffffffffffffffffffffffffffffffffff16146106bb576040517f08c379a00000000000000000000000000000000000000000000000000000000081526004016106b290612bc7565b60405180910390fd5b600081116106fe576040517f08c379a00000000000000000000000000000000000000000000000000000000081526004016106f590612b07565b60405180910390fd5b478111156107785760003073ffffffffffffffffffffffffffffffffffffffff164760405161072c906128d6565b60006040518083038185875af1925050503d8060008114610769576040519150601f19603f3d011682016040523d82523d6000602084013e61076e565b606091505b50509050506107e6565b60003073ffffffffffffffffffffffffffffffffffffffff168260405161079e906128d6565b60006040518083038185875af1925050503d80600081146107db576040519150601f19603f3d011682016040523d82523d6000602084013e6107e0565b606091505b50509050505b50565b6107f161104d565b73ffffffffffffffffffffffffffffffffffffffff168573ffffffffffffffffffffffffffffffffffffffff16148061083757506108368561083161104d565b610c55565b5b610876576040517f08c379a000000000000000000000000000000000000000000000000000000000815260040161086d90612b67565b60405180910390fd5b6108838585858585611055565b5050505050565b806007546108989190612ea7565b34146108d9576040517f08c379a00000000000000000000000000000000000000000000000000000000081526004016108d090612c47565b60405180910390fd5b6103e8811061091d576040517f08c379a000000000000000000000000000000000000000000000000000000000815260040161091490612b87565b60405180910390fd5b60005b8181101561099057610973336109366004611369565b60016040518060400160405280600481526020017f3078303000000000000000000000000000000000000000000000000000000000815250611377565b61097d600461150d565b80806109889061301c565b915050610920565b506109a833600654836109a39190612ea7565b611523565b50565b606081518351146109f1576040517f08c379a00000000000000000000000000000000000000000000000000000000081526004016109e890612c27565b60405180910390fd5b6000835167ffffffffffffffff811115610a0e57610a0d613123565b5b604051908082528060200260200182016040528015610a3c5781602001602082028036833780820191505090505b50905060005b8451811015610ab957610a89858281518110610a6157610a606130f4565b5b6020026020010151858381518110610a7c57610a7b6130f4565b5b602002602001015161039a565b828281518110610a9c57610a9b6130f4565b5b60200260200101818152505080610ab29061301c565b9050610a42565b508091505092915050565b610acc61104d565b73ffffffffffffffffffffffffffffffffffffffff16610aea610c15565b73ffffffffffffffffffffffffffffffffffffffff1614610b40576040517f08c379a0000000000000000000000000000000000000000000000000000000008152600401610b3790612bc7565b60405180910390fd5b60008111610b83576040517f08c379a0000000000000000000000000000000000000000000000000000000008152600401610b7a90612be7565b60405180910390fd5b8060078190555050565b610b9561104d565b73ffffffffffffffffffffffffffffffffffffffff16610bb3610c15565b73ffffffffffffffffffffffffffffffffffffffff1614610c09576040517f08c379a0000000000000000000000000000000000000000000000000000000008152600401610c0090612bc7565b60405180910390fd5b610c1360006115d7565b565b6000600360009054906101000a900473ffffffffffffffffffffffffffffffffffffffff16905090565b610c51610c4a61104d565b838361169d565b5050565b6000600160008473ffffffffffffffffffffffffffffffffffffffff1673ffffffffffffffffffffffffffffffffffffffff16815260200190815260200160002060008373ffffffffffffffffffffffffffffffffffffffff1673ffffffffffffffffffffffffffffffffffffffff16815260200190815260200160002060009054906101000a900460ff16905092915050565b610cf161104d565b73ffffffffffffffffffffffffffffffffffffffff168573ffffffffffffffffffffffffffffffffffffffff161480610d375750610d3685610d3161104d565b610c55565b5b610d76576040517f08c379a0000000000000000000000000000000000000000000000000000000008152600401610d6d90612b27565b60405180910390fd5b610d83858585858561180a565b5050505050565b610d9261104d565b73ffffffffffffffffffffffffffffffffffffffff16610db0610c15565b73ffffffffffffffffffffffffffffffffffffffff1614610e06576040517f08c379a0000000000000000000000000000000000000000000000000000000008152600401610dfd90612bc7565b60405180910390fd5b600073ffffffffffffffffffffffffffffffffffffffff168173ffffffffffffffffffffffffffffffffffffffff161415610e76576040517f08c379a0000000000000000000000000000000000000000000000000000000008152600401610e6d90612ae7565b60405180910390fd5b610e7f816115d7565b50565b60007f01ffc9a7000000000000000000000000000000000000000000000000000000007bffffffffffffffffffffffffffffffffffffffffffffffffffffffff1916827bffffffffffffffffffffffffffffffffffffffffffffffffffffffff1916149050919050565b60606000821415610f34576040518060400160405280600181526020017f30000000000000000000000000000000000000000000000000000000000000008152509050611048565b600082905060005b60008214610f66578080610f4f9061301c565b915050600a82610f5f9190612e76565b9150610f3c565b60008167ffffffffffffffff811115610f8257610f81613123565b5b6040519080825280601f01601f191660200182016040528015610fb45781602001600182028036833780820191505090505b5090505b6000851461104157600182610fcd9190612f01565b9150600a85610fdc9190613065565b6030610fe89190612e20565b60f81b818381518110610ffe57610ffd6130f4565b5b60200101907effffffffffffffffffffffffffffffffffffffffffffffffffffffffffffff1916908160001a905350600a8561103a9190612e76565b9450610fb8565b8093505050505b919050565b600033905090565b8151835114611099576040517f08c379a000000000000000000000000000000000000000000000000000000000815260040161109090612c67565b60405180910390fd5b600073ffffffffffffffffffffffffffffffffffffffff168473ffffffffffffffffffffffffffffffffffffffff161415611109576040517f08c379a000000000000000000000000000000000000000000000000000000000815260040161110090612b47565b60405180910390fd5b600061111361104d565b9050611123818787878787611a8c565b60005b84518110156112d4576000858281518110611144576111436130f4565b5b602002602001015190506000858381518110611163576111626130f4565b5b60200260200101519050600080600084815260200190815260200160002060008b73ffffffffffffffffffffffffffffffffffffffff1673ffffffffffffffffffffffffffffffffffffffff16815260200190815260200160002054905081811015611204576040517f08c379a00000000000000000000000000000000000000000000000000000000081526004016111fb90612ba7565b60405180910390fd5b81810360008085815260200190815260200160002060008c73ffffffffffffffffffffffffffffffffffffffff1673ffffffffffffffffffffffffffffffffffffffff168152602001908152602001600020819055508160008085815260200190815260200160002060008b73ffffffffffffffffffffffffffffffffffffffff1673ffffffffffffffffffffffffffffffffffffffff16815260200190815260200160002060008282546112b99190612e20565b92505081905550505050806112cd9061301c565b9050611126565b508473ffffffffffffffffffffffffffffffffffffffff168673ffffffffffffffffffffffffffffffffffffffff168273ffffffffffffffffffffffffffffffffffffffff167f4a39dc06d4c0dbc64b70af90fd698a233a518aa5d07e595d983b8c0526c8f7fb878760405161134b929190612a13565b60405180910390a4611361818787878787611a94565b505050505050565b600081600001549050919050565b600073ffffffffffffffffffffffffffffffffffffffff168473ffffffffffffffffffffffffffffffffffffffff1614156113e7576040517f08c379a00000000000000000000000000000000000000000000000000000000081526004016113de90612c87565b60405180910390fd5b60006113f161104d565b90506114128160008761140388611c7b565b61140c88611c7b565b87611a8c565b8260008086815260200190815260200160002060008773ffffffffffffffffffffffffffffffffffffffff1673ffffffffffffffffffffffffffffffffffffffff16815260200190815260200160002060008282546114719190612e20565b925050819055508473ffffffffffffffffffffffffffffffffffffffff16600073ffffffffffffffffffffffffffffffffffffffff168273ffffffffffffffffffffffffffffffffffffffff167fc3d58168c5ae7397731d063d5bbf3d657854427343f4c083240f7aacaa2d0f6287876040516114ef929190612cc2565b60405180910390a461150681600087878787611cf5565b5050505050565b6001816000016000828254019250508190555050565b600560009054906101000a900473ffffffffffffffffffffffffffffffffffffffff1673ffffffffffffffffffffffffffffffffffffffff1663a9059cbb83836040518363ffffffff1660e01b81526004016115809291906129c8565b602060405180830381600087803b15801561159a57600080fd5b505af11580156115ae573d6000803e3d6000fd5b505050506040513d601f19601f820116820180604052508101906115d291906123e4565b505050565b6000600360009054906101000a900473ffffffffffffffffffffffffffffffffffffffff16905081600360006101000a81548173ffffffffffffffffffffffffffffffffffffffff021916908373ffffffffffffffffffffffffffffffffffffffff1602179055508173ffffffffffffffffffffffffffffffffffffffff168173ffffffffffffffffffffffffffffffffffffffff167f8be0079c531659141344cd1fd0a4f28419497f9722a3daafe3b4186f6b6457e060405160405180910390a35050565b8173ffffffffffffffffffffffffffffffffffffffff168373ffffffffffffffffffffffffffffffffffffffff16141561170c576040517f08c379a000000000000000000000000000000000000000000000000000000000815260040161170390612c07565b60405180910390fd5b80600160008573ffffffffffffffffffffffffffffffffffffffff1673ffffffffffffffffffffffffffffffffffffffff16815260200190815260200160002060008473ffffffffffffffffffffffffffffffffffffffff1673ffffffffffffffffffffffffffffffffffffffff16815260200190815260200160002060006101000a81548160ff0219169083151502179055508173ffffffffffffffffffffffffffffffffffffffff168373ffffffffffffffffffffffffffffffffffffffff167f17307eab39ab6107e8899845ad3d59bd9653f200f220920489ca2b5937696c31836040516117fd9190612a4a565b60405180910390a3505050565b600073ffffffffffffffffffffffffffffffffffffffff168473ffffffffffffffffffffffffffffffffffffffff16141561187a576040517f08c379a000000000000000000000000000000000000000000000000000000000815260040161187190612b47565b60405180910390fd5b600061188461104d565b90506118a481878761189588611c7b565b61189e88611c7b565b87611a8c565b600080600086815260200190815260200160002060008873ffffffffffffffffffffffffffffffffffffffff1673ffffffffffffffffffffffffffffffffffffffff1681526020019081526020016000205490508381101561193b576040517f08c379a000000000000000000000000000000000000000000000000000000000815260040161193290612ba7565b60405180910390fd5b83810360008087815260200190815260200160002060008973ffffffffffffffffffffffffffffffffffffffff1673ffffffffffffffffffffffffffffffffffffffff168152602001908152602001600020819055508360008087815260200190815260200160002060008873ffffffffffffffffffffffffffffffffffffffff1673ffffffffffffffffffffffffffffffffffffffff16815260200190815260200160002060008282546119f09190612e20565b925050819055508573ffffffffffffffffffffffffffffffffffffffff168773ffffffffffffffffffffffffffffffffffffffff168373ffffffffffffffffffffffffffffffffffffffff167fc3d58168c5ae7397731d063d5bbf3d657854427343f4c083240f7aacaa2d0f628888604051611a6d929190612cc2565b60405180910390a4611a83828888888888611cf5565b50505050505050565b505050505050565b611ab38473ffffffffffffffffffffffffffffffffffffffff16611edc565b15611c73578373ffffffffffffffffffffffffffffffffffffffff1663bc197c8187878686866040518663ffffffff1660e01b8152600401611af9959493929190612906565b602060405180830381600087803b158015611b1357600080fd5b505af1925050508015611b4457506040513d601f19601f82011682018060405250810190611b41919061243e565b60015b611bea57611b50613152565b806308c379a01415611bad5750611b656136f3565b80611b705750611baf565b806040517f08c379a0000000000000000000000000000000000000000000000000000000008152600401611ba49190612a65565b60405180910390fd5b505b6040517f08c379a0000000000000000000000000000000000000000000000000000000008152600401611be190612a87565b60405180910390fd5b63bc197c8160e01b7bffffffffffffffffffffffffffffffffffffffffffffffffffffffff1916817bffffffffffffffffffffffffffffffffffffffffffffffffffffffff191614611c71576040517f08c379a0000000000000000000000000000000000000000000000000000000008152600401611c6890612aa7565b60405180910390fd5b505b505050505050565b60606000600167ffffffffffffffff811115611c9a57611c99613123565b5b604051908082528060200260200182016040528015611cc85781602001602082028036833780820191505090505b5090508281600081518110611ce057611cdf6130f4565b5b60200260200101818152505080915050919050565b611d148473ffffffffffffffffffffffffffffffffffffffff16611edc565b15611ed4578373ffffffffffffffffffffffffffffffffffffffff1663f23a6e6187878686866040518663ffffffff1660e01b8152600401611d5a95949392919061296e565b602060405180830381600087803b158015611d7457600080fd5b505af1925050508015611da557506040513d601f19601f82011682018060405250810190611da2919061243e565b60015b611e4b57611db1613152565b806308c379a01415611e0e5750611dc66136f3565b80611dd15750611e10565b806040517f08c379a0000000000000000000000000000000000000000000000000000000008152600401611e059190612a65565b60405180910390fd5b505b6040517f08c379a0000000000000000000000000000000000000000000000000000000008152600401611e4290612a87565b60405180910390fd5b63f23a6e6160e01b7bffffffffffffffffffffffffffffffffffffffffffffffffffffffff1916817bffffffffffffffffffffffffffffffffffffffffffffffffffffffff191614611ed2576040517f08c379a0000000000000000000000000000000000000000000000000000000008152600401611ec990612aa7565b60405180910390fd5b505b505050505050565b600080823b905060008111915050919050565b6000611f02611efd84612d10565b612ceb565b90508083825260208201905082856020860282011115611f2557611f24613179565b5b60005b85811015611f555781611f3b8882612011565b845260208401935060208301925050600181019050611f28565b5050509392505050565b6000611f72611f6d84612d3c565b612ceb565b90508083825260208201905082856020860282011115611f9557611f94613179565b5b60005b85811015611fc55781611fab8882612104565b845260208401935060208301925050600181019050611f98565b5050509392505050565b6000611fe2611fdd84612d68565b612ceb565b905082815260208101848484011115611ffe57611ffd61317e565b5b612009848285612fa9565b509392505050565b60008135905061202081613789565b92915050565b600082601f83011261203b5761203a613174565b5b813561204b848260208601611eef565b91505092915050565b600082601f83011261206957612068613174565b5b8135612079848260208601611f5f565b91505092915050565b600081359050612091816137a0565b92915050565b6000815190506120a6816137a0565b92915050565b6000813590506120bb816137b7565b92915050565b6000815190506120d0816137b7565b92915050565b600082601f8301126120eb576120ea613174565b5b81356120fb848260208601611fcf565b91505092915050565b600081359050612113816137ce565b92915050565b60006020828403121561212f5761212e613188565b5b600061213d84828501612011565b91505092915050565b6000806040838503121561215d5761215c613188565b5b600061216b85828601612011565b925050602061217c85828601612011565b9150509250929050565b600080600080600060a086880312156121a2576121a1613188565b5b60006121b088828901612011565b95505060206121c188828901612011565b945050604086013567ffffffffffffffff8111156121e2576121e1613183565b5b6121ee88828901612054565b935050606086013567ffffffffffffffff81111561220f5761220e613183565b5b61221b88828901612054565b925050608086013567ffffffffffffffff81111561223c5761223b613183565b5b612248888289016120d6565b9150509295509295909350565b600080600080600060a0868803121561227157612270613188565b5b600061227f88828901612011565b955050602061229088828901612011565b94505060406122a188828901612104565b93505060606122b288828901612104565b925050608086013567ffffffffffffffff8111156122d3576122d2613183565b5b6122df888289016120d6565b9150509295509295909350565b6000806040838503121561230357612302613188565b5b600061231185828601612011565b925050602061232285828601612082565b9150509250929050565b6000806040838503121561234357612342613188565b5b600061235185828601612011565b925050602061236285828601612104565b9150509250929050565b6000806040838503121561238357612382613188565b5b600083013567ffffffffffffffff8111156123a1576123a0613183565b5b6123ad85828601612026565b925050602083013567ffffffffffffffff8111156123ce576123cd613183565b5b6123da85828601612054565b9150509250929050565b6000602082840312156123fa576123f9613188565b5b600061240884828501612097565b91505092915050565b60006020828403121561242757612426613188565b5b6000612435848285016120ac565b91505092915050565b60006020828403121561245457612453613188565b5b6000612462848285016120c1565b91505092915050565b60006020828403121561248157612480613188565b5b600061248f84828501612104565b91505092915050565b60006124a4838361288b565b60208301905092915050565b6124b981612f35565b82525050565b60006124ca82612da9565b6124d48185612dd7565b93506124df83612d99565b8060005b838110156125105781516124f78882612498565b975061250283612dca565b9250506001810190506124e3565b5085935050505092915050565b61252681612f47565b82525050565b600061253782612db4565b6125418185612de8565b9350612551818560208601612fb8565b61255a8161318d565b840191505092915050565b600061257082612dbf565b61257a8185612e04565b935061258a818560208601612fb8565b6125938161318d565b840191505092915050565b60006125a982612dbf565b6125b38185612e15565b93506125c3818560208601612fb8565b80840191505092915050565b60006125dc603483612e04565b91506125e7826131ab565b604082019050919050565b60006125ff602883612e04565b915061260a826131fa565b604082019050919050565b6000612622602b83612e04565b915061262d82613249565b604082019050919050565b6000612645602683612e04565b915061265082613298565b604082019050919050565b6000612668605983612e15565b9150612673826132e7565b605982019050919050565b600061268b602383612e04565b91506126968261335c565b604082019050919050565b60006126ae602983612e04565b91506126b9826133ab565b604082019050919050565b60006126d1602583612e04565b91506126dc826133fa565b604082019050919050565b60006126f4603283612e04565b91506126ff82613449565b604082019050919050565b6000612717601a83612e04565b915061272282613498565b602082019050919050565b600061273a602a83612e04565b9150612745826134c1565b604082019050919050565b600061275d600583612e15565b915061276882613510565b600582019050919050565b6000612780602083612e04565b915061278b82613539565b602082019050919050565b60006127a3600083612df9565b91506127ae82613562565b600082019050919050565b60006127c6601a83612e04565b91506127d182613565565b602082019050919050565b60006127e9602983612e04565b91506127f48261358e565b604082019050919050565b600061280c602983612e04565b9150612817826135dd565b604082019050919050565b600061282f601b83612e04565b915061283a8261362c565b602082019050919050565b6000612852602883612e04565b915061285d82613655565b604082019050919050565b6000612875602183612e04565b9150612880826136a4565b604082019050919050565b61289481612f9f565b82525050565b6128a381612f9f565b82525050565b60006128b48261265b565b91506128c0828461259e565b91506128cb82612750565b915081905092915050565b60006128e182612796565b9150819050919050565b600060208201905061290060008301846124b0565b92915050565b600060a08201905061291b60008301886124b0565b61292860208301876124b0565b818103604083015261293a81866124bf565b9050818103606083015261294e81856124bf565b90508181036080830152612962818461252c565b90509695505050505050565b600060a08201905061298360008301886124b0565b61299060208301876124b0565b61299d604083018661289a565b6129aa606083018561289a565b81810360808301526129bc818461252c565b90509695505050505050565b60006040820190506129dd60008301856124b0565b6129ea602083018461289a565b9392505050565b60006020820190508181036000830152612a0b81846124bf565b905092915050565b60006040820190508181036000830152612a2d81856124bf565b90508181036020830152612a4181846124bf565b90509392505050565b6000602082019050612a5f600083018461251d565b92915050565b60006020820190508181036000830152612a7f8184612565565b905092915050565b60006020820190508181036000830152612aa0816125cf565b9050919050565b60006020820190508181036000830152612ac0816125f2565b9050919050565b60006020820190508181036000830152612ae081612615565b9050919050565b60006020820190508181036000830152612b0081612638565b9050919050565b60006020820190508181036000830152612b208161267e565b9050919050565b60006020820190508181036000830152612b40816126a1565b9050919050565b60006020820190508181036000830152612b60816126c4565b9050919050565b60006020820190508181036000830152612b80816126e7565b9050919050565b60006020820190508181036000830152612ba08161270a565b9050919050565b60006020820190508181036000830152612bc08161272d565b9050919050565b60006020820190508181036000830152612be081612773565b9050919050565b60006020820190508181036000830152612c00816127b9565b9050919050565b60006020820190508181036000830152612c20816127dc565b9050919050565b60006020820190508181036000830152612c40816127ff565b9050919050565b60006020820190508181036000830152612c6081612822565b9050919050565b60006020820190508181036000830152612c8081612845565b9050919050565b60006020820190508181036000830152612ca081612868565b9050919050565b6000602082019050612cbc600083018461289a565b92915050565b6000604082019050612cd7600083018561289a565b612ce4602083018461289a565b9392505050565b6000612cf5612d06565b9050612d018282612feb565b919050565b6000604051905090565b600067ffffffffffffffff821115612d2b57612d2a613123565b5b602082029050602081019050919050565b600067ffffffffffffffff821115612d5757612d56613123565b5b602082029050602081019050919050565b600067ffffffffffffffff821115612d8357612d82613123565b5b612d8c8261318d565b9050602081019050919050565b6000819050602082019050919050565b600081519050919050565b600081519050919050565b600081519050919050565b6000602082019050919050565b600082825260208201905092915050565b600082825260208201905092915050565b600081905092915050565b600082825260208201905092915050565b600081905092915050565b6000612e2b82612f9f565b9150612e3683612f9f565b9250827fffffffffffffffffffffffffffffffffffffffffffffffffffffffffffffffff03821115612e6b57612e6a613096565b5b828201905092915050565b6000612e8182612f9f565b9150612e8c83612f9f565b925082612e9c57612e9b6130c5565b5b828204905092915050565b6000612eb282612f9f565b9150612ebd83612f9f565b9250817fffffffffffffffffffffffffffffffffffffffffffffffffffffffffffffffff0483118215151615612ef657612ef5613096565b5b828202905092915050565b6000612f0c82612f9f565b9150612f1783612f9f565b925082821015612f2a57612f29613096565b5b828203905092915050565b6000612f4082612f7f565b9050919050565b60008115159050919050565b60007fffffffff0000000000000000000000000000000000000000000000000000000082169050919050565b600073ffffffffffffffffffffffffffffffffffffffff82169050919050565b6000819050919050565b82818337600083830152505050565b60005b83811015612fd6578082015181840152602081019050612fbb565b83811115612fe5576000848401525b50505050565b612ff48261318d565b810181811067ffffffffffffffff8211171561301357613012613123565b5b80604052505050565b600061302782612f9f565b91507fffffffffffffffffffffffffffffffffffffffffffffffffffffffffffffffff82141561305a57613059613096565b5b600182019050919050565b600061307082612f9f565b915061307b83612f9f565b92508261308b5761308a6130c5565b5b828206905092915050565b7f4e487b7100000000000000000000000000000000000000000000000000000000600052601160045260246000fd5b7f4e487b7100000000000000000000000000000000000000000000000000000000600052601260045260246000fd5b7f4e487b7100000000000000000000000000000000000000000000000000000000600052603260045260246000fd5b7f4e487b7100000000000000000000000000000000000000000000000000000000600052604160045260246000fd5b600060033d11156131715760046000803e61316e60005161319e565b90505b90565b600080fd5b600080fd5b600080fd5b600080fd5b600080fd5b6000601f19601f8301169050919050565b60008160e01c9050919050565b7f455243313135353a207472616e7366657220746f206e6f6e204552433131353560008201527f526563656976657220696d706c656d656e746572000000000000000000000000602082015250565b7f455243313135353a204552433131353552656365697665722072656a6563746560008201527f6420746f6b656e73000000000000000000000000000000000000000000000000602082015250565b7f455243313135353a2062616c616e636520717565727920666f7220746865207a60008201527f65726f2061646472657373000000000000000000000000000000000000000000602082015250565b7f4f776e61626c653a206e6577206f776e657220697320746865207a65726f206160008201527f6464726573730000000000000000000000000000000000000000000000000000602082015250565b7f68747470733a2f2f62616679626569636c37746e75647778686d79656e716c3260008201527f7a327165726266646534377a71766574337779626a67676b6c696a7371366f6a60208201527f7366342e697066732e6e667473746f726167652e6c696e6b2f00000000000000604082015250565b7f43656c744d696e7465723a20696e76616c696420776974686472617720616d6f60008201527f756e740000000000000000000000000000000000000000000000000000000000602082015250565b7f455243313135353a2063616c6c6572206973206e6f74206f776e6572206e6f7260008201527f20617070726f7665640000000000000000000000000000000000000000000000602082015250565b7f455243313135353a207472616e7366657220746f20746865207a65726f20616460008201527f6472657373000000000000000000000000000000000000000000000000000000602082015250565b7f455243313135353a207472616e736665722063616c6c6572206973206e6f742060008201527f6f776e6572206e6f7220617070726f7665640000000000000000000000000000602082015250565b7f43656c744d696e7465723a206578636363656420616d6f756e74000000000000600082015250565b7f455243313135353a20696e73756666696369656e742062616c616e636520666f60008201527f72207472616e7366657200000000000000000000000000000000000000000000602082015250565b7f2e6a736f6e000000000000000000000000000000000000000000000000000000600082015250565b7f4f776e61626c653a2063616c6c6572206973206e6f7420746865206f776e6572600082015250565b50565b7f43656c744d696e7465723a20696e76616c696420616d6f756e74000000000000600082015250565b7f455243313135353a2073657474696e6720617070726f76616c2073746174757360008201527f20666f722073656c660000000000000000000000000000000000000000000000602082015250565b7f455243313135353a206163636f756e747320616e6420696473206c656e67746860008201527f206d69736d617463680000000000000000000000000000000000000000000000602082015250565b7f43656c744d696e7465723a206e6f7420656e6f7567682066756e640000000000600082015250565b7f455243313135353a2069647320616e6420616d6f756e7473206c656e6774682060008201527f6d69736d61746368000000000000000000000000000000000000000000000000602082015250565b7f455243313135353a206d696e7420746f20746865207a65726f2061646472657360008201527f7300000000000000000000000000000000000000000000000000000000000000602082015250565b600060443d101561370357613786565b61370b612d06565b60043d036004823e80513d602482011167ffffffffffffffff82111715613733575050613786565b808201805167ffffffffffffffff8111156137515750505050613786565b80602083010160043d03850181111561376e575050505050613786565b61377d82602001850186612feb565b82955050505050505b90565b61379281612f35565b811461379d57600080fd5b50565b6137a981612f47565b81146137b457600080fd5b50565b6137c081612f53565b81146137cb57600080fd5b50565b6137d781612f9f565b81146137e257600080fd5b5056fea26469706673582212205ebdeb40f75a2b8e26e3e797497e3be1f130165d9a320b8f5cee80ac23d788cb64736f6c6343000807003368747470733a2f2f62616679626569636c37746e75647778686d79656e716c327a327165726266646534377a71766574337779626a67676b6c696a7371366f6a7366342e697066732e6e667473746f726167652e6c696e6b2f",
  "linkReferences": {},
  "deployedLinkReferences": {}
}