{
  "_format": "hh-sol-artifact-1",
  "contractName": "CeltMinter",
  "sourceName": "contracts/CeltMinter.sol",
  "abi": [
    {
      "inputs": [
        {
          "internalType": "address",
          "name": "tokenContract",
          "type": "address"
        }
      ],
      "stateMutability": "nonpayable",
      "type": "constructor"
    },
    {
      "anonymous": false,
      "inputs": [
        {
          "indexed": true,
          "internalType": "address",
          "name": "account",
          "type": "address"
        },
        {
          "indexed": true,
          "internalType": "address",
          "name": "operator",
          "type": "address"
        },
        {
          "indexed": false,
          "internalType": "bool",
          "name": "approved",
          "type": "bool"
        }
      ],
      "name": "ApprovalForAll",
      "type": "event"
    },
    {
      "anonymous": false,
      "inputs": [
        {
          "indexed": true,
          "internalType": "address",
          "name": "operator",
          "type": "address"
        },
        {
          "indexed": true,
          "internalType": "address",
          "name": "from",
          "type": "address"
        },
        {
          "indexed": true,
          "internalType": "address",
          "name": "to",
          "type": "address"
        },
        {
          "indexed": false,
          "internalType": "uint256[]",
          "name": "ids",
          "type": "uint256[]"
        },
        {
          "indexed": false,
          "internalType": "uint256[]",
          "name": "values",
          "type": "uint256[]"
        }
      ],
      "name": "TransferBatch",
      "type": "event"
    },
    {
      "anonymous": false,
      "inputs": [
        {
          "indexed": true,
          "internalType": "address",
          "name": "operator",
          "type": "address"
        },
        {
          "indexed": true,
          "internalType": "address",
          "name": "from",
          "type": "address"
        },
        {
          "indexed": true,
          "internalType": "address",
          "name": "to",
          "type": "address"
        },
        {
          "indexed": false,
          "internalType": "uint256",
          "name": "id",
          "type": "uint256"
        },
        {
          "indexed": false,
          "internalType": "uint256",
          "name": "value",
          "type": "uint256"
        }
      ],
      "name": "TransferSingle",
      "type": "event"
    },
    {
      "anonymous": false,
      "inputs": [
        {
          "indexed": false,
          "internalType": "string",
          "name": "value",
          "type": "string"
        },
        {
          "indexed": true,
          "internalType": "uint256",
          "name": "id",
          "type": "uint256"
        }
      ],
      "name": "URI",
      "type": "event"
    },
    {
      "inputs": [
        {
          "internalType": "address",
          "name": "account",
          "type": "address"
        },
        {
          "internalType": "uint256",
          "name": "id",
          "type": "uint256"
        }
      ],
      "name": "balanceOf",
      "outputs": [
        {
          "internalType": "uint256",
          "name": "",
          "type": "uint256"
        }
      ],
      "stateMutability": "view",
      "type": "function"
    },
    {
      "inputs": [
        {
          "internalType": "address[]",
          "name": "accounts",
          "type": "address[]"
        },
        {
          "internalType": "uint256[]",
          "name": "ids",
          "type": "uint256[]"
        }
      ],
      "name": "balanceOfBatch",
      "outputs": [
        {
          "internalType": "uint256[]",
          "name": "",
          "type": "uint256[]"
        }
      ],
      "stateMutability": "view",
      "type": "function"
    },
    {
      "inputs": [
        {
          "internalType": "uint256",
          "name": "amount",
          "type": "uint256"
        }
      ],
      "name": "claim",
      "outputs": [],
      "stateMutability": "nonpayable",
      "type": "function"
    },
    {
      "inputs": [
        {
          "internalType": "address",
          "name": "account",
          "type": "address"
        },
        {
          "internalType": "address",
          "name": "operator",
          "type": "address"
        }
      ],
      "name": "isApprovedForAll",
      "outputs": [
        {
          "internalType": "bool",
          "name": "",
          "type": "bool"
        }
      ],
      "stateMutability": "view",
      "type": "function"
    },
    {
      "inputs": [
        {
          "internalType": "address",
          "name": "from",
          "type": "address"
        },
        {
          "internalType": "address",
          "name": "to",
          "type": "address"
        },
        {
          "internalType": "uint256[]",
          "name": "ids",
          "type": "uint256[]"
        },
        {
          "internalType": "uint256[]",
          "name": "amounts",
          "type": "uint256[]"
        },
        {
          "internalType": "bytes",
          "name": "data",
          "type": "bytes"
        }
      ],
      "name": "safeBatchTransferFrom",
      "outputs": [],
      "stateMutability": "nonpayable",
      "type": "function"
    },
    {
      "inputs": [
        {
          "internalType": "address",
          "name": "from",
          "type": "address"
        },
        {
          "internalType": "address",
          "name": "to",
          "type": "address"
        },
        {
          "internalType": "uint256",
          "name": "id",
          "type": "uint256"
        },
        {
          "internalType": "uint256",
          "name": "amount",
          "type": "uint256"
        },
        {
          "internalType": "bytes",
          "name": "data",
          "type": "bytes"
        }
      ],
      "name": "safeTransferFrom",
      "outputs": [],
      "stateMutability": "nonpayable",
      "type": "function"
    },
    {
      "inputs": [
        {
          "internalType": "address",
          "name": "operator",
          "type": "address"
        },
        {
          "internalType": "bool",
          "name": "approved",
          "type": "bool"
        }
      ],
      "name": "setApprovalForAll",
      "outputs": [],
      "stateMutability": "nonpayable",
      "type": "function"
    },
    {
      "inputs": [
        {
          "internalType": "bytes4",
          "name": "interfaceId",
          "type": "bytes4"
        }
      ],
      "name": "supportsInterface",
      "outputs": [
        {
          "internalType": "bool",
          "name": "",
          "type": "bool"
        }
      ],
      "stateMutability": "view",
      "type": "function"
    },
    {
      "inputs": [
        {
          "internalType": "uint256",
          "name": "_tokenId",
          "type": "uint256"
        }
      ],
      "name": "uri",
      "outputs": [
        {
          "internalType": "string",
          "name": "",
          "type": "string"
        }
      ],
      "stateMutability": "view",
      "type": "function"
    }
  ],
  "bytecode": "0x60806040523480156200001157600080fd5b5060405162002ffd38038062002ffd83398181016040528101906200003791906200018e565b6040518060800160405280604d815260200162002fb0604d91396200006281620000ab60201b60201c565b5080600460006101000a81548173ffffffffffffffffffffffffffffffffffffffff021916908373ffffffffffffffffffffffffffffffffffffffff1602179055505062000278565b8060029080519060200190620000c3929190620000c7565b5050565b828054620000d590620001f4565b90600052602060002090601f016020900481019282620000f9576000855562000145565b82601f106200011457805160ff191683800117855562000145565b8280016001018555821562000145579182015b828111156200014457825182559160200191906001019062000127565b5b50905062000154919062000158565b5090565b5b808211156200017357600081600090555060010162000159565b5090565b60008151905062000188816200025e565b92915050565b600060208284031215620001a757620001a662000259565b5b6000620001b78482850162000177565b91505092915050565b6000620001cd82620001d4565b9050919050565b600073ffffffffffffffffffffffffffffffffffffffff82169050919050565b600060028204905060018216806200020d57607f821691505b602082108114156200022457620002236200022a565b5b50919050565b7f4e487b7100000000000000000000000000000000000000000000000000000000600052602260045260246000fd5b600080fd5b6200026981620001c0565b81146200027557600080fd5b50565b612d2880620002886000396000f3fe608060405234801561001057600080fd5b50600436106100925760003560e01c8063379607f511610066578063379607f5146101435780634e1273f41461015f578063a22cb4651461018f578063e985e9c5146101ab578063f242432a146101db57610092565b8062fdd58e1461009757806301ffc9a7146100c75780630e89341c146100f75780632eb2c2d614610127575b600080fd5b6100b160048036038101906100ac9190611b5c565b6101f7565b6040516100be9190612335565b60405180910390f35b6100e160048036038101906100dc9190611c41565b6102c0565b6040516100ee9190612178565b60405180910390f35b610111600480360381019061010c9190611c9b565b6103a2565b60405161011e9190612193565b60405180910390f35b610141600480360381019061013c91906119b6565b6103d3565b005b61015d60048036038101906101589190611c9b565b610474565b005b61017960048036038101906101749190611b9c565b610541565b604051610186919061211f565b60405180910390f35b6101a960048036038101906101a49190611b1c565b61065a565b005b6101c560048036038101906101c09190611976565b610670565b6040516101d29190612178565b60405180910390f35b6101f560048036038101906101f09190611a85565b610704565b005b60008073ffffffffffffffffffffffffffffffffffffffff168373ffffffffffffffffffffffffffffffffffffffff161415610268576040517f08c379a000000000000000000000000000000000000000000000000000000000815260040161025f906121f5565b60405180910390fd5b60008083815260200190815260200160002060008473ffffffffffffffffffffffffffffffffffffffff1673ffffffffffffffffffffffffffffffffffffffff16815260200190815260200160002054905092915050565b60007fd9b67a26000000000000000000000000000000000000000000000000000000007bffffffffffffffffffffffffffffffffffffffffffffffffffffffff1916827bffffffffffffffffffffffffffffffffffffffffffffffffffffffff1916148061038b57507f0e89341c000000000000000000000000000000000000000000000000000000007bffffffffffffffffffffffffffffffffffffffffffffffffffffffff1916827bffffffffffffffffffffffffffffffffffffffffffffffffffffffff1916145b8061039b575061039a826107a5565b5b9050919050565b60606103ad8261080f565b6040516020016103bd9190612007565b6040516020818303038152906040529050919050565b6103db610970565b73ffffffffffffffffffffffffffffffffffffffff168573ffffffffffffffffffffffffffffffffffffffff16148061042157506104208561041b610970565b610670565b5b610460576040517f08c379a000000000000000000000000000000000000000000000000000000000815260040161045790612255565b60405180910390fd5b61046d8585858585610978565b5050505050565b6103e881106104b8576040517f08c379a00000000000000000000000000000000000000000000000000000000081526004016104af90612275565b60405180910390fd5b60005b8181101561052b5761050e336104d16003610c8c565b60016040518060400160405280600481526020017f3078303000000000000000000000000000000000000000000000000000000000815250610c9a565b6105186003610e30565b808061052390612645565b9150506104bb565b5061053e33670de0b6b3a7640000610e46565b50565b60608151835114610587576040517f08c379a000000000000000000000000000000000000000000000000000000000815260040161057e906122d5565b60405180910390fd5b6000835167ffffffffffffffff8111156105a4576105a361274c565b5b6040519080825280602002602001820160405280156105d25781602001602082028036833780820191505090505b50905060005b845181101561064f5761061f8582815181106105f7576105f661271d565b5b60200260200101518583815181106106125761061161271d565b5b60200260200101516101f7565b8282815181106106325761063161271d565b5b6020026020010181815250508061064890612645565b90506105d8565b508091505092915050565b61066c610665610970565b8383610efa565b5050565b6000600160008473ffffffffffffffffffffffffffffffffffffffff1673ffffffffffffffffffffffffffffffffffffffff16815260200190815260200160002060008373ffffffffffffffffffffffffffffffffffffffff1673ffffffffffffffffffffffffffffffffffffffff16815260200190815260200160002060009054906101000a900460ff16905092915050565b61070c610970565b73ffffffffffffffffffffffffffffffffffffffff168573ffffffffffffffffffffffffffffffffffffffff16148061075257506107518561074c610970565b610670565b5b610791576040517f08c379a000000000000000000000000000000000000000000000000000000000815260040161078890612215565b60405180910390fd5b61079e8585858585611067565b5050505050565b60007f01ffc9a7000000000000000000000000000000000000000000000000000000007bffffffffffffffffffffffffffffffffffffffffffffffffffffffff1916827bffffffffffffffffffffffffffffffffffffffffffffffffffffffff1916149050919050565b60606000821415610857576040518060400160405280600181526020017f3000000000000000000000000000000000000000000000000000000000000000815250905061096b565b600082905060005b6000821461088957808061087290612645565b915050600a8261088291906124f9565b915061085f565b60008167ffffffffffffffff8111156108a5576108a461274c565b5b6040519080825280601f01601f1916602001820160405280156108d75781602001600182028036833780820191505090505b5090505b60008514610964576001826108f0919061252a565b9150600a856108ff919061268e565b603061090b91906124a3565b60f81b8183815181106109215761092061271d565b5b60200101907effffffffffffffffffffffffffffffffffffffffffffffffffffffffffffff1916908160001a905350600a8561095d91906124f9565b94506108db565b8093505050505b919050565b600033905090565b81518351146109bc576040517f08c379a00000000000000000000000000000000000000000000000000000000081526004016109b3906122f5565b60405180910390fd5b600073ffffffffffffffffffffffffffffffffffffffff168473ffffffffffffffffffffffffffffffffffffffff161415610a2c576040517f08c379a0000000000000000000000000000000000000000000000000000000008152600401610a2390612235565b60405180910390fd5b6000610a36610970565b9050610a468187878787876112e9565b60005b8451811015610bf7576000858281518110610a6757610a6661271d565b5b602002602001015190506000858381518110610a8657610a8561271d565b5b60200260200101519050600080600084815260200190815260200160002060008b73ffffffffffffffffffffffffffffffffffffffff1673ffffffffffffffffffffffffffffffffffffffff16815260200190815260200160002054905081811015610b27576040517f08c379a0000000000000000000000000000000000000000000000000000000008152600401610b1e90612295565b60405180910390fd5b81810360008085815260200190815260200160002060008c73ffffffffffffffffffffffffffffffffffffffff1673ffffffffffffffffffffffffffffffffffffffff168152602001908152602001600020819055508160008085815260200190815260200160002060008b73ffffffffffffffffffffffffffffffffffffffff1673ffffffffffffffffffffffffffffffffffffffff1681526020019081526020016000206000828254610bdc91906124a3565b9250508190555050505080610bf090612645565b9050610a49565b508473ffffffffffffffffffffffffffffffffffffffff168673ffffffffffffffffffffffffffffffffffffffff168273ffffffffffffffffffffffffffffffffffffffff167f4a39dc06d4c0dbc64b70af90fd698a233a518aa5d07e595d983b8c0526c8f7fb8787604051610c6e929190612141565b60405180910390a4610c848187878787876112f1565b505050505050565b600081600001549050919050565b600073ffffffffffffffffffffffffffffffffffffffff168473ffffffffffffffffffffffffffffffffffffffff161415610d0a576040517f08c379a0000000000000000000000000000000000000000000000000000000008152600401610d0190612315565b60405180910390fd5b6000610d14610970565b9050610d3581600087610d26886114d8565b610d2f886114d8565b876112e9565b8260008086815260200190815260200160002060008773ffffffffffffffffffffffffffffffffffffffff1673ffffffffffffffffffffffffffffffffffffffff1681526020019081526020016000206000828254610d9491906124a3565b925050819055508473ffffffffffffffffffffffffffffffffffffffff16600073ffffffffffffffffffffffffffffffffffffffff168273ffffffffffffffffffffffffffffffffffffffff167fc3d58168c5ae7397731d063d5bbf3d657854427343f4c083240f7aacaa2d0f628787604051610e12929190612350565b60405180910390a4610e2981600087878787611552565b5050505050565b6001816000016000828254019250508190555050565b600460009054906101000a900473ffffffffffffffffffffffffffffffffffffffff1673ffffffffffffffffffffffffffffffffffffffff1663a9059cbb83836040518363ffffffff1660e01b8152600401610ea39291906120f6565b602060405180830381600087803b158015610ebd57600080fd5b505af1158015610ed1573d6000803e3d6000fd5b505050506040513d601f19601f82011682018060405250810190610ef59190611c14565b505050565b8173ffffffffffffffffffffffffffffffffffffffff168373ffffffffffffffffffffffffffffffffffffffff161415610f69576040517f08c379a0000000000000000000000000000000000000000000000000000000008152600401610f60906122b5565b60405180910390fd5b80600160008573ffffffffffffffffffffffffffffffffffffffff1673ffffffffffffffffffffffffffffffffffffffff16815260200190815260200160002060008473ffffffffffffffffffffffffffffffffffffffff1673ffffffffffffffffffffffffffffffffffffffff16815260200190815260200160002060006101000a81548160ff0219169083151502179055508173ffffffffffffffffffffffffffffffffffffffff168373ffffffffffffffffffffffffffffffffffffffff167f17307eab39ab6107e8899845ad3d59bd9653f200f220920489ca2b5937696c318360405161105a9190612178565b60405180910390a3505050565b600073ffffffffffffffffffffffffffffffffffffffff168473ffffffffffffffffffffffffffffffffffffffff1614156110d7576040517f08c379a00000000000000000000000000000000000000000000000000000000081526004016110ce90612235565b60405180910390fd5b60006110e1610970565b90506111018187876110f2886114d8565b6110fb886114d8565b876112e9565b600080600086815260200190815260200160002060008873ffffffffffffffffffffffffffffffffffffffff1673ffffffffffffffffffffffffffffffffffffffff16815260200190815260200160002054905083811015611198576040517f08c379a000000000000000000000000000000000000000000000000000000000815260040161118f90612295565b60405180910390fd5b83810360008087815260200190815260200160002060008973ffffffffffffffffffffffffffffffffffffffff1673ffffffffffffffffffffffffffffffffffffffff168152602001908152602001600020819055508360008087815260200190815260200160002060008873ffffffffffffffffffffffffffffffffffffffff1673ffffffffffffffffffffffffffffffffffffffff168152602001908152602001600020600082825461124d91906124a3565b925050819055508573ffffffffffffffffffffffffffffffffffffffff168773ffffffffffffffffffffffffffffffffffffffff168373ffffffffffffffffffffffffffffffffffffffff167fc3d58168c5ae7397731d063d5bbf3d657854427343f4c083240f7aacaa2d0f6288886040516112ca929190612350565b60405180910390a46112e0828888888888611552565b50505050505050565b505050505050565b6113108473ffffffffffffffffffffffffffffffffffffffff16611739565b156114d0578373ffffffffffffffffffffffffffffffffffffffff1663bc197c8187878686866040518663ffffffff1660e01b8152600401611356959493929190612034565b602060405180830381600087803b15801561137057600080fd5b505af19250505080156113a157506040513d601f19601f8201168201806040525081019061139e9190611c6e565b60015b611447576113ad61277b565b806308c379a0141561140a57506113c2612c00565b806113cd575061140c565b806040517f08c379a00000000000000000000000000000000000000000000000000000000081526004016114019190612193565b60405180910390fd5b505b6040517f08c379a000000000000000000000000000000000000000000000000000000000815260040161143e906121b5565b60405180910390fd5b63bc197c8160e01b7bffffffffffffffffffffffffffffffffffffffffffffffffffffffff1916817bffffffffffffffffffffffffffffffffffffffffffffffffffffffff1916146114ce576040517f08c379a00000000000000000000000000000000000000000000000000000000081526004016114c5906121d5565b60405180910390fd5b505b505050505050565b60606000600167ffffffffffffffff8111156114f7576114f661274c565b5b6040519080825280602002602001820160405280156115255781602001602082028036833780820191505090505b509050828160008151811061153d5761153c61271d565b5b60200260200101818152505080915050919050565b6115718473ffffffffffffffffffffffffffffffffffffffff16611739565b15611731578373ffffffffffffffffffffffffffffffffffffffff1663f23a6e6187878686866040518663ffffffff1660e01b81526004016115b795949392919061209c565b602060405180830381600087803b1580156115d157600080fd5b505af192505050801561160257506040513d601f19601f820116820180604052508101906115ff9190611c6e565b60015b6116a85761160e61277b565b806308c379a0141561166b5750611623612c00565b8061162e575061166d565b806040517f08c379a00000000000000000000000000000000000000000000000000000000081526004016116629190612193565b60405180910390fd5b505b6040517f08c379a000000000000000000000000000000000000000000000000000000000815260040161169f906121b5565b60405180910390fd5b63f23a6e6160e01b7bffffffffffffffffffffffffffffffffffffffffffffffffffffffff1916817bffffffffffffffffffffffffffffffffffffffffffffffffffffffff19161461172f576040517f08c379a0000000000000000000000000000000000000000000000000000000008152600401611726906121d5565b60405180910390fd5b505b505050505050565b600080823b905060008111915050919050565b600061175f61175a8461239e565b612379565b90508083825260208201905082856020860282011115611782576117816127a2565b5b60005b858110156117b25781611798888261186e565b845260208401935060208301925050600181019050611785565b5050509392505050565b60006117cf6117ca846123ca565b612379565b905080838252602082019050828560208602820111156117f2576117f16127a2565b5b60005b8581101561182257816118088882611961565b8452602084019350602083019250506001810190506117f5565b5050509392505050565b600061183f61183a846123f6565b612379565b90508281526020810184848401111561185b5761185a6127a7565b5b6118668482856125d2565b509392505050565b60008135905061187d81612c96565b92915050565b600082601f8301126118985761189761279d565b5b81356118a884826020860161174c565b91505092915050565b600082601f8301126118c6576118c561279d565b5b81356118d68482602086016117bc565b91505092915050565b6000813590506118ee81612cad565b92915050565b60008151905061190381612cad565b92915050565b60008135905061191881612cc4565b92915050565b60008151905061192d81612cc4565b92915050565b600082601f8301126119485761194761279d565b5b813561195884826020860161182c565b91505092915050565b60008135905061197081612cdb565b92915050565b6000806040838503121561198d5761198c6127b1565b5b600061199b8582860161186e565b92505060206119ac8582860161186e565b9150509250929050565b600080600080600060a086880312156119d2576119d16127b1565b5b60006119e08882890161186e565b95505060206119f18882890161186e565b945050604086013567ffffffffffffffff811115611a1257611a116127ac565b5b611a1e888289016118b1565b935050606086013567ffffffffffffffff811115611a3f57611a3e6127ac565b5b611a4b888289016118b1565b925050608086013567ffffffffffffffff811115611a6c57611a6b6127ac565b5b611a7888828901611933565b9150509295509295909350565b600080600080600060a08688031215611aa157611aa06127b1565b5b6000611aaf8882890161186e565b9550506020611ac08882890161186e565b9450506040611ad188828901611961565b9350506060611ae288828901611961565b925050608086013567ffffffffffffffff811115611b0357611b026127ac565b5b611b0f88828901611933565b9150509295509295909350565b60008060408385031215611b3357611b326127b1565b5b6000611b418582860161186e565b9250506020611b52858286016118df565b9150509250929050565b60008060408385031215611b7357611b726127b1565b5b6000611b818582860161186e565b9250506020611b9285828601611961565b9150509250929050565b60008060408385031215611bb357611bb26127b1565b5b600083013567ffffffffffffffff811115611bd157611bd06127ac565b5b611bdd85828601611883565b925050602083013567ffffffffffffffff811115611bfe57611bfd6127ac565b5b611c0a858286016118b1565b9150509250929050565b600060208284031215611c2a57611c296127b1565b5b6000611c38848285016118f4565b91505092915050565b600060208284031215611c5757611c566127b1565b5b6000611c6584828501611909565b91505092915050565b600060208284031215611c8457611c836127b1565b5b6000611c928482850161191e565b91505092915050565b600060208284031215611cb157611cb06127b1565b5b6000611cbf84828501611961565b91505092915050565b6000611cd48383611fe9565b60208301905092915050565b611ce98161255e565b82525050565b6000611cfa82612437565b611d048185612465565b9350611d0f83612427565b8060005b83811015611d40578151611d278882611cc8565b9750611d3283612458565b925050600181019050611d13565b5085935050505092915050565b611d5681612570565b82525050565b6000611d6782612442565b611d718185612476565b9350611d818185602086016125e1565b611d8a816127b6565b840191505092915050565b6000611da08261244d565b611daa8185612487565b9350611dba8185602086016125e1565b611dc3816127b6565b840191505092915050565b6000611dd98261244d565b611de38185612498565b9350611df38185602086016125e1565b80840191505092915050565b6000611e0c603483612487565b9150611e17826127d4565b604082019050919050565b6000611e2f602883612487565b9150611e3a82612823565b604082019050919050565b6000611e52604d83612498565b9150611e5d82612872565b604d82019050919050565b6000611e75602b83612487565b9150611e80826128e7565b604082019050919050565b6000611e98602983612487565b9150611ea382612936565b604082019050919050565b6000611ebb602583612487565b9150611ec682612985565b604082019050919050565b6000611ede603283612487565b9150611ee9826129d4565b604082019050919050565b6000611f01601a83612487565b9150611f0c82612a23565b602082019050919050565b6000611f24602a83612487565b9150611f2f82612a4c565b604082019050919050565b6000611f47600583612498565b9150611f5282612a9b565b600582019050919050565b6000611f6a602983612487565b9150611f7582612ac4565b604082019050919050565b6000611f8d602983612487565b9150611f9882612b13565b604082019050919050565b6000611fb0602883612487565b9150611fbb82612b62565b604082019050919050565b6000611fd3602183612487565b9150611fde82612bb1565b604082019050919050565b611ff2816125c8565b82525050565b612001816125c8565b82525050565b600061201282611e45565b915061201e8284611dce565b915061202982611f3a565b915081905092915050565b600060a0820190506120496000830188611ce0565b6120566020830187611ce0565b81810360408301526120688186611cef565b9050818103606083015261207c8185611cef565b905081810360808301526120908184611d5c565b90509695505050505050565b600060a0820190506120b16000830188611ce0565b6120be6020830187611ce0565b6120cb6040830186611ff8565b6120d86060830185611ff8565b81810360808301526120ea8184611d5c565b90509695505050505050565b600060408201905061210b6000830185611ce0565b6121186020830184611ff8565b9392505050565b600060208201905081810360008301526121398184611cef565b905092915050565b6000604082019050818103600083015261215b8185611cef565b9050818103602083015261216f8184611cef565b90509392505050565b600060208201905061218d6000830184611d4d565b92915050565b600060208201905081810360008301526121ad8184611d95565b905092915050565b600060208201905081810360008301526121ce81611dff565b9050919050565b600060208201905081810360008301526121ee81611e22565b9050919050565b6000602082019050818103600083015261220e81611e68565b9050919050565b6000602082019050818103600083015261222e81611e8b565b9050919050565b6000602082019050818103600083015261224e81611eae565b9050919050565b6000602082019050818103600083015261226e81611ed1565b9050919050565b6000602082019050818103600083015261228e81611ef4565b9050919050565b600060208201905081810360008301526122ae81611f17565b9050919050565b600060208201905081810360008301526122ce81611f5d565b9050919050565b600060208201905081810360008301526122ee81611f80565b9050919050565b6000602082019050818103600083015261230e81611fa3565b9050919050565b6000602082019050818103600083015261232e81611fc6565b9050919050565b600060208201905061234a6000830184611ff8565b92915050565b60006040820190506123656000830185611ff8565b6123726020830184611ff8565b9392505050565b6000612383612394565b905061238f8282612614565b919050565b6000604051905090565b600067ffffffffffffffff8211156123b9576123b861274c565b5b602082029050602081019050919050565b600067ffffffffffffffff8211156123e5576123e461274c565b5b602082029050602081019050919050565b600067ffffffffffffffff8211156124115761241061274c565b5b61241a826127b6565b9050602081019050919050565b6000819050602082019050919050565b600081519050919050565b600081519050919050565b600081519050919050565b6000602082019050919050565b600082825260208201905092915050565b600082825260208201905092915050565b600082825260208201905092915050565b600081905092915050565b60006124ae826125c8565b91506124b9836125c8565b9250827fffffffffffffffffffffffffffffffffffffffffffffffffffffffffffffffff038211156124ee576124ed6126bf565b5b828201905092915050565b6000612504826125c8565b915061250f836125c8565b92508261251f5761251e6126ee565b5b828204905092915050565b6000612535826125c8565b9150612540836125c8565b925082821015612553576125526126bf565b5b828203905092915050565b6000612569826125a8565b9050919050565b60008115159050919050565b60007fffffffff0000000000000000000000000000000000000000000000000000000082169050919050565b600073ffffffffffffffffffffffffffffffffffffffff82169050919050565b6000819050919050565b82818337600083830152505050565b60005b838110156125ff5780820151818401526020810190506125e4565b8381111561260e576000848401525b50505050565b61261d826127b6565b810181811067ffffffffffffffff8211171561263c5761263b61274c565b5b80604052505050565b6000612650826125c8565b91507fffffffffffffffffffffffffffffffffffffffffffffffffffffffffffffffff821415612683576126826126bf565b5b600182019050919050565b6000612699826125c8565b91506126a4836125c8565b9250826126b4576126b36126ee565b5b828206905092915050565b7f4e487b7100000000000000000000000000000000000000000000000000000000600052601160045260246000fd5b7f4e487b7100000000000000000000000000000000000000000000000000000000600052601260045260246000fd5b7f4e487b7100000000000000000000000000000000000000000000000000000000600052603260045260246000fd5b7f4e487b7100000000000000000000000000000000000000000000000000000000600052604160045260246000fd5b600060033d111561279a5760046000803e6127976000516127c7565b90505b90565b600080fd5b600080fd5b600080fd5b600080fd5b600080fd5b6000601f19601f8301169050919050565b60008160e01c9050919050565b7f455243313135353a207472616e7366657220746f206e6f6e204552433131353560008201527f526563656976657220696d706c656d656e746572000000000000000000000000602082015250565b7f455243313135353a204552433131353552656365697665722072656a6563746560008201527f6420746f6b656e73000000000000000000000000000000000000000000000000602082015250565b7f68747470733a2f2f697066732e696f2f697066732f516d63556d5836726e746560008201527f6672426e4a6e4b6e55684434763636384342504a636b533174466d566634324160208201527f6745733f66696c656e616d653d00000000000000000000000000000000000000604082015250565b7f455243313135353a2062616c616e636520717565727920666f7220746865207a60008201527f65726f2061646472657373000000000000000000000000000000000000000000602082015250565b7f455243313135353a2063616c6c6572206973206e6f74206f776e6572206e6f7260008201527f20617070726f7665640000000000000000000000000000000000000000000000602082015250565b7f455243313135353a207472616e7366657220746f20746865207a65726f20616460008201527f6472657373000000000000000000000000000000000000000000000000000000602082015250565b7f455243313135353a207472616e736665722063616c6c6572206973206e6f742060008201527f6f776e6572206e6f7220617070726f7665640000000000000000000000000000602082015250565b7f43656c744d696e7465723a206578636363656420616d6f756e74000000000000600082015250565b7f455243313135353a20696e73756666696369656e742062616c616e636520666f60008201527f72207472616e7366657200000000000000000000000000000000000000000000602082015250565b7f2e6a736f6e000000000000000000000000000000000000000000000000000000600082015250565b7f455243313135353a2073657474696e6720617070726f76616c2073746174757360008201527f20666f722073656c660000000000000000000000000000000000000000000000602082015250565b7f455243313135353a206163636f756e747320616e6420696473206c656e67746860008201527f206d69736d617463680000000000000000000000000000000000000000000000602082015250565b7f455243313135353a2069647320616e6420616d6f756e7473206c656e6774682060008201527f6d69736d61746368000000000000000000000000000000000000000000000000602082015250565b7f455243313135353a206d696e7420746f20746865207a65726f2061646472657360008201527f7300000000000000000000000000000000000000000000000000000000000000602082015250565b600060443d1015612c1057612c93565b612c18612394565b60043d036004823e80513d602482011167ffffffffffffffff82111715612c40575050612c93565b808201805167ffffffffffffffff811115612c5e5750505050612c93565b80602083010160043d038501811115612c7b575050505050612c93565b612c8a82602001850186612614565b82955050505050505b90565b612c9f8161255e565b8114612caa57600080fd5b50565b612cb681612570565b8114612cc157600080fd5b50565b612ccd8161257c565b8114612cd857600080fd5b50565b612ce4816125c8565b8114612cef57600080fd5b5056fea26469706673582212206d51454a93f64ce82f1298859477f6981ca01f418aaf803dea95cc77bba19a6664736f6c6343000807003368747470733a2f2f697066732e696f2f697066732f516d63556d5836726e74656672426e4a6e4b6e55684434763636384342504a636b533174466d56663432416745733f66696c656e616d653d",
  "linkReferences": {},
  "deployedLinkReferences": {}
}