{
  "_format": "hh-sol-artifact-1",
  "contractName": "CeltMinter",
  "sourceName": "contracts/CeltMinter.sol",
  "abi": [
    {
      "inputs": [
        {
          "internalType": "address",
          "name": "tokenContract",
          "type": "address"
        }
      ],
      "stateMutability": "nonpayable",
      "type": "constructor"
    },
    {
      "anonymous": false,
      "inputs": [
        {
          "indexed": true,
          "internalType": "address",
          "name": "account",
          "type": "address"
        },
        {
          "indexed": true,
          "internalType": "address",
          "name": "operator",
          "type": "address"
        },
        {
          "indexed": false,
          "internalType": "bool",
          "name": "approved",
          "type": "bool"
        }
      ],
      "name": "ApprovalForAll",
      "type": "event"
    },
    {
      "anonymous": false,
      "inputs": [
        {
          "indexed": true,
          "internalType": "address",
          "name": "previousOwner",
          "type": "address"
        },
        {
          "indexed": true,
          "internalType": "address",
          "name": "newOwner",
          "type": "address"
        }
      ],
      "name": "OwnershipTransferred",
      "type": "event"
    },
    {
      "anonymous": false,
      "inputs": [
        {
          "indexed": true,
          "internalType": "address",
          "name": "operator",
          "type": "address"
        },
        {
          "indexed": true,
          "internalType": "address",
          "name": "from",
          "type": "address"
        },
        {
          "indexed": true,
          "internalType": "address",
          "name": "to",
          "type": "address"
        },
        {
          "indexed": false,
          "internalType": "uint256[]",
          "name": "ids",
          "type": "uint256[]"
        },
        {
          "indexed": false,
          "internalType": "uint256[]",
          "name": "values",
          "type": "uint256[]"
        }
      ],
      "name": "TransferBatch",
      "type": "event"
    },
    {
      "anonymous": false,
      "inputs": [
        {
          "indexed": true,
          "internalType": "address",
          "name": "operator",
          "type": "address"
        },
        {
          "indexed": true,
          "internalType": "address",
          "name": "from",
          "type": "address"
        },
        {
          "indexed": true,
          "internalType": "address",
          "name": "to",
          "type": "address"
        },
        {
          "indexed": false,
          "internalType": "uint256",
          "name": "id",
          "type": "uint256"
        },
        {
          "indexed": false,
          "internalType": "uint256",
          "name": "value",
          "type": "uint256"
        }
      ],
      "name": "TransferSingle",
      "type": "event"
    },
    {
      "anonymous": false,
      "inputs": [
        {
          "indexed": false,
          "internalType": "string",
          "name": "value",
          "type": "string"
        },
        {
          "indexed": true,
          "internalType": "uint256",
          "name": "id",
          "type": "uint256"
        }
      ],
      "name": "URI",
      "type": "event"
    },
    {
      "inputs": [
        {
          "internalType": "address",
          "name": "account",
          "type": "address"
        },
        {
          "internalType": "uint256",
          "name": "id",
          "type": "uint256"
        }
      ],
      "name": "balanceOf",
      "outputs": [
        {
          "internalType": "uint256",
          "name": "",
          "type": "uint256"
        }
      ],
      "stateMutability": "view",
      "type": "function"
    },
    {
      "inputs": [
        {
          "internalType": "address[]",
          "name": "accounts",
          "type": "address[]"
        },
        {
          "internalType": "uint256[]",
          "name": "ids",
          "type": "uint256[]"
        }
      ],
      "name": "balanceOfBatch",
      "outputs": [
        {
          "internalType": "uint256[]",
          "name": "",
          "type": "uint256[]"
        }
      ],
      "stateMutability": "view",
      "type": "function"
    },
    {
      "inputs": [
        {
          "internalType": "uint256",
          "name": "amount",
          "type": "uint256"
        }
      ],
      "name": "claim",
      "outputs": [],
      "stateMutability": "payable",
      "type": "function"
    },
    {
      "inputs": [
        {
          "internalType": "address",
          "name": "account",
          "type": "address"
        },
        {
          "internalType": "address",
          "name": "operator",
          "type": "address"
        }
      ],
      "name": "isApprovedForAll",
      "outputs": [
        {
          "internalType": "bool",
          "name": "",
          "type": "bool"
        }
      ],
      "stateMutability": "view",
      "type": "function"
    },
    {
      "inputs": [],
      "name": "owner",
      "outputs": [
        {
          "internalType": "address",
          "name": "",
          "type": "address"
        }
      ],
      "stateMutability": "view",
      "type": "function"
    },
    {
      "inputs": [],
      "name": "renounceOwnership",
      "outputs": [],
      "stateMutability": "nonpayable",
      "type": "function"
    },
    {
      "inputs": [
        {
          "internalType": "address",
          "name": "from",
          "type": "address"
        },
        {
          "internalType": "address",
          "name": "to",
          "type": "address"
        },
        {
          "internalType": "uint256[]",
          "name": "ids",
          "type": "uint256[]"
        },
        {
          "internalType": "uint256[]",
          "name": "amounts",
          "type": "uint256[]"
        },
        {
          "internalType": "bytes",
          "name": "data",
          "type": "bytes"
        }
      ],
      "name": "safeBatchTransferFrom",
      "outputs": [],
      "stateMutability": "nonpayable",
      "type": "function"
    },
    {
      "inputs": [
        {
          "internalType": "address",
          "name": "from",
          "type": "address"
        },
        {
          "internalType": "address",
          "name": "to",
          "type": "address"
        },
        {
          "internalType": "uint256",
          "name": "id",
          "type": "uint256"
        },
        {
          "internalType": "uint256",
          "name": "amount",
          "type": "uint256"
        },
        {
          "internalType": "bytes",
          "name": "data",
          "type": "bytes"
        }
      ],
      "name": "safeTransferFrom",
      "outputs": [],
      "stateMutability": "nonpayable",
      "type": "function"
    },
    {
      "inputs": [
        {
          "internalType": "address",
          "name": "operator",
          "type": "address"
        },
        {
          "internalType": "bool",
          "name": "approved",
          "type": "bool"
        }
      ],
      "name": "setApprovalForAll",
      "outputs": [],
      "stateMutability": "nonpayable",
      "type": "function"
    },
    {
      "inputs": [
        {
          "internalType": "uint256",
          "name": "fee",
          "type": "uint256"
        }
      ],
      "name": "setFee",
      "outputs": [],
      "stateMutability": "nonpayable",
      "type": "function"
    },
    {
      "inputs": [
        {
          "internalType": "uint256",
          "name": "airdropAmount",
          "type": "uint256"
        }
      ],
      "name": "setGreenFalAirdropAmount",
      "outputs": [],
      "stateMutability": "nonpayable",
      "type": "function"
    },
    {
      "inputs": [
        {
          "internalType": "bytes4",
          "name": "interfaceId",
          "type": "bytes4"
        }
      ],
      "name": "supportsInterface",
      "outputs": [
        {
          "internalType": "bool",
          "name": "",
          "type": "bool"
        }
      ],
      "stateMutability": "view",
      "type": "function"
    },
    {
      "inputs": [
        {
          "internalType": "address",
          "name": "newOwner",
          "type": "address"
        }
      ],
      "name": "transferOwnership",
      "outputs": [],
      "stateMutability": "nonpayable",
      "type": "function"
    },
    {
      "inputs": [
        {
          "internalType": "uint256",
          "name": "_tokenId",
          "type": "uint256"
        }
      ],
      "name": "uri",
      "outputs": [
        {
          "internalType": "string",
          "name": "",
          "type": "string"
        }
      ],
      "stateMutability": "view",
      "type": "function"
    },
    {
      "inputs": [
        {
          "internalType": "uint256",
          "name": "withdrawAmount",
          "type": "uint256"
        }
      ],
      "name": "withdraw",
      "outputs": [],
      "stateMutability": "nonpayable",
      "type": "function"
    }
  ],
  "bytecode": "0x608060405269021e19e0c9bab2400000600655662386f26fc100006007553480156200002a57600080fd5b5060405162003c1338038062003c13833981810160405281019062000050919062000295565b60405180608001604052806059815260200162003bba605991396200007b81620000e460201b60201c565b506200009c620000906200010060201b60201c565b6200010860201b60201c565b80600560006101000a81548173ffffffffffffffffffffffffffffffffffffffff021916908373ffffffffffffffffffffffffffffffffffffffff160217905550506200037f565b8060029080519060200190620000fc929190620001ce565b5050565b600033905090565b6000600360009054906101000a900473ffffffffffffffffffffffffffffffffffffffff16905081600360006101000a81548173ffffffffffffffffffffffffffffffffffffffff021916908373ffffffffffffffffffffffffffffffffffffffff1602179055508173ffffffffffffffffffffffffffffffffffffffff168173ffffffffffffffffffffffffffffffffffffffff167f8be0079c531659141344cd1fd0a4f28419497f9722a3daafe3b4186f6b6457e060405160405180910390a35050565b828054620001dc90620002fb565b90600052602060002090601f0160209004810192826200020057600085556200024c565b82601f106200021b57805160ff19168380011785556200024c565b828001600101855582156200024c579182015b828111156200024b5782518255916020019190600101906200022e565b5b5090506200025b91906200025f565b5090565b5b808211156200027a57600081600090555060010162000260565b5090565b6000815190506200028f8162000365565b92915050565b600060208284031215620002ae57620002ad62000360565b5b6000620002be848285016200027e565b91505092915050565b6000620002d482620002db565b9050919050565b600073ffffffffffffffffffffffffffffffffffffffff82169050919050565b600060028204905060018216806200031457607f821691505b602082108114156200032b576200032a62000331565b5b50919050565b7f4e487b7100000000000000000000000000000000000000000000000000000000600052602260045260246000fd5b600080fd5b6200037081620002c7565b81146200037c57600080fd5b50565b61382b806200038f6000396000f3fe6080604052600436106100e75760003560e01c80634e1273f41161008a578063a22cb46511610059578063a22cb465146102e2578063e985e9c51461030b578063f242432a14610348578063f2fde38b14610371576100e7565b80634e1273f41461023a57806369fe0e2d14610277578063715018a6146102a05780638da5cb5b146102b7576100e7565b80630ffcd681116100c65780630ffcd681146101a35780632e1a7d4d146101cc5780632eb2c2d6146101f5578063379607f51461021e576100e7565b8062fdd58e146100ec57806301ffc9a7146101295780630e89341c14610166575b600080fd5b3480156100f857600080fd5b50610113600480360381019061010e919061233c565b61039a565b6040516101209190612cb7565b60405180910390f35b34801561013557600080fd5b50610150600480360381019061014b9190612421565b610463565b60405161015d9190612a5a565b60405180910390f35b34801561017257600080fd5b5061018d6004803603810190610188919061247b565b610545565b60405161019a9190612a75565b60405180910390f35b3480156101af57600080fd5b506101ca60048036038101906101c5919061247b565b610576565b005b3480156101d857600080fd5b506101f360048036038101906101ee919061247b565b61063f565b005b34801561020157600080fd5b5061021c60048036038101906102179190612196565b6107e9565b005b6102386004803603810190610233919061247b565b61088a565b005b34801561024657600080fd5b50610261600480360381019061025c919061237c565b6109ab565b60405161026e9190612a01565b60405180910390f35b34801561028357600080fd5b5061029e6004803603810190610299919061247b565b610ac4565b005b3480156102ac57600080fd5b506102b5610b8d565b005b3480156102c357600080fd5b506102cc610c15565b6040516102d991906128fb565b60405180910390f35b3480156102ee57600080fd5b50610309600480360381019061030491906122fc565b610c3f565b005b34801561031757600080fd5b50610332600480360381019061032d9190612156565b610c55565b60405161033f9190612a5a565b60405180910390f35b34801561035457600080fd5b5061036f600480360381019061036a9190612265565b610ce9565b005b34801561037d57600080fd5b5061039860048036038101906103939190612129565b610d8a565b005b60008073ffffffffffffffffffffffffffffffffffffffff168373ffffffffffffffffffffffffffffffffffffffff16141561040b576040517f08c379a000000000000000000000000000000000000000000000000000000000815260040161040290612ad7565b60405180910390fd5b60008083815260200190815260200160002060008473ffffffffffffffffffffffffffffffffffffffff1673ffffffffffffffffffffffffffffffffffffffff16815260200190815260200160002054905092915050565b60007fd9b67a26000000000000000000000000000000000000000000000000000000007bffffffffffffffffffffffffffffffffffffffffffffffffffffffff1916827bffffffffffffffffffffffffffffffffffffffffffffffffffffffff1916148061052e57507f0e89341c000000000000000000000000000000000000000000000000000000007bffffffffffffffffffffffffffffffffffffffffffffffffffffffff1916827bffffffffffffffffffffffffffffffffffffffffffffffffffffffff1916145b8061053e575061053d82610e82565b5b9050919050565b606061055082610eec565b60405160200161056091906128b9565b6040516020818303038152906040529050919050565b61057e61104d565b73ffffffffffffffffffffffffffffffffffffffff1661059c610c15565b73ffffffffffffffffffffffffffffffffffffffff16146105f2576040517f08c379a00000000000000000000000000000000000000000000000000000000081526004016105e990612bd7565b60405180910390fd5b60008111610635576040517f08c379a000000000000000000000000000000000000000000000000000000000815260040161062c90612bf7565b60405180910390fd5b8060068190555050565b61064761104d565b73ffffffffffffffffffffffffffffffffffffffff16610665610c15565b73ffffffffffffffffffffffffffffffffffffffff16146106bb576040517f08c379a00000000000000000000000000000000000000000000000000000000081526004016106b290612bd7565b60405180910390fd5b600081116106fe576040517f08c379a00000000000000000000000000000000000000000000000000000000081526004016106f590612b17565b60405180910390fd5b478111156107785760003073ffffffffffffffffffffffffffffffffffffffff164760405161072c906128e6565b60006040518083038185875af1925050503d8060008114610769576040519150601f19603f3d011682016040523d82523d6000602084013e61076e565b606091505b50509050506107e6565b60003073ffffffffffffffffffffffffffffffffffffffff168260405161079e906128e6565b60006040518083038185875af1925050503d80600081146107db576040519150601f19603f3d011682016040523d82523d6000602084013e6107e0565b606091505b50509050505b50565b6107f161104d565b73ffffffffffffffffffffffffffffffffffffffff168573ffffffffffffffffffffffffffffffffffffffff16148061083757506108368561083161104d565b610c55565b5b610876576040517f08c379a000000000000000000000000000000000000000000000000000000000815260040161086d90612b77565b60405180910390fd5b6108838585858585611055565b5050505050565b806007546108989190612eb7565b34146108d9576040517f08c379a00000000000000000000000000000000000000000000000000000000081526004016108d090612c57565b60405180910390fd5b6103e8811061091d576040517f08c379a000000000000000000000000000000000000000000000000000000000815260040161091490612b97565b60405180910390fd5b60005b8181101561099057610973336109366004611369565b60016040518060400160405280600481526020017f3078303000000000000000000000000000000000000000000000000000000000815250611377565b61097d600461150d565b80806109889061302c565b915050610920565b506109a833600654836109a39190612eb7565b611523565b50565b606081518351146109f1576040517f08c379a00000000000000000000000000000000000000000000000000000000081526004016109e890612c37565b60405180910390fd5b6000835167ffffffffffffffff811115610a0e57610a0d613133565b5b604051908082528060200260200182016040528015610a3c5781602001602082028036833780820191505090505b50905060005b8451811015610ab957610a89858281518110610a6157610a60613104565b5b6020026020010151858381518110610a7c57610a7b613104565b5b602002602001015161039a565b828281518110610a9c57610a9b613104565b5b60200260200101818152505080610ab29061302c565b9050610a42565b508091505092915050565b610acc61104d565b73ffffffffffffffffffffffffffffffffffffffff16610aea610c15565b73ffffffffffffffffffffffffffffffffffffffff1614610b40576040517f08c379a0000000000000000000000000000000000000000000000000000000008152600401610b3790612bd7565b60405180910390fd5b60008111610b83576040517f08c379a0000000000000000000000000000000000000000000000000000000008152600401610b7a90612bf7565b60405180910390fd5b8060078190555050565b610b9561104d565b73ffffffffffffffffffffffffffffffffffffffff16610bb3610c15565b73ffffffffffffffffffffffffffffffffffffffff1614610c09576040517f08c379a0000000000000000000000000000000000000000000000000000000008152600401610c0090612bd7565b60405180910390fd5b610c1360006115d7565b565b6000600360009054906101000a900473ffffffffffffffffffffffffffffffffffffffff16905090565b610c51610c4a61104d565b838361169d565b5050565b6000600160008473ffffffffffffffffffffffffffffffffffffffff1673ffffffffffffffffffffffffffffffffffffffff16815260200190815260200160002060008373ffffffffffffffffffffffffffffffffffffffff1673ffffffffffffffffffffffffffffffffffffffff16815260200190815260200160002060009054906101000a900460ff16905092915050565b610cf161104d565b73ffffffffffffffffffffffffffffffffffffffff168573ffffffffffffffffffffffffffffffffffffffff161480610d375750610d3685610d3161104d565b610c55565b5b610d76576040517f08c379a0000000000000000000000000000000000000000000000000000000008152600401610d6d90612b37565b60405180910390fd5b610d83858585858561180a565b5050505050565b610d9261104d565b73ffffffffffffffffffffffffffffffffffffffff16610db0610c15565b73ffffffffffffffffffffffffffffffffffffffff1614610e06576040517f08c379a0000000000000000000000000000000000000000000000000000000008152600401610dfd90612bd7565b60405180910390fd5b600073ffffffffffffffffffffffffffffffffffffffff168173ffffffffffffffffffffffffffffffffffffffff161415610e76576040517f08c379a0000000000000000000000000000000000000000000000000000000008152600401610e6d90612af7565b60405180910390fd5b610e7f816115d7565b50565b60007f01ffc9a7000000000000000000000000000000000000000000000000000000007bffffffffffffffffffffffffffffffffffffffffffffffffffffffff1916827bffffffffffffffffffffffffffffffffffffffffffffffffffffffff1916149050919050565b60606000821415610f34576040518060400160405280600181526020017f30000000000000000000000000000000000000000000000000000000000000008152509050611048565b600082905060005b60008214610f66578080610f4f9061302c565b915050600a82610f5f9190612e86565b9150610f3c565b60008167ffffffffffffffff811115610f8257610f81613133565b5b6040519080825280601f01601f191660200182016040528015610fb45781602001600182028036833780820191505090505b5090505b6000851461104157600182610fcd9190612f11565b9150600a85610fdc9190613075565b6030610fe89190612e30565b60f81b818381518110610ffe57610ffd613104565b5b60200101907effffffffffffffffffffffffffffffffffffffffffffffffffffffffffffff1916908160001a905350600a8561103a9190612e86565b9450610fb8565b8093505050505b919050565b600033905090565b8151835114611099576040517f08c379a000000000000000000000000000000000000000000000000000000000815260040161109090612c77565b60405180910390fd5b600073ffffffffffffffffffffffffffffffffffffffff168473ffffffffffffffffffffffffffffffffffffffff161415611109576040517f08c379a000000000000000000000000000000000000000000000000000000000815260040161110090612b57565b60405180910390fd5b600061111361104d565b9050611123818787878787611a8c565b60005b84518110156112d457600085828151811061114457611143613104565b5b60200260200101519050600085838151811061116357611162613104565b5b60200260200101519050600080600084815260200190815260200160002060008b73ffffffffffffffffffffffffffffffffffffffff1673ffffffffffffffffffffffffffffffffffffffff16815260200190815260200160002054905081811015611204576040517f08c379a00000000000000000000000000000000000000000000000000000000081526004016111fb90612bb7565b60405180910390fd5b81810360008085815260200190815260200160002060008c73ffffffffffffffffffffffffffffffffffffffff1673ffffffffffffffffffffffffffffffffffffffff168152602001908152602001600020819055508160008085815260200190815260200160002060008b73ffffffffffffffffffffffffffffffffffffffff1673ffffffffffffffffffffffffffffffffffffffff16815260200190815260200160002060008282546112b99190612e30565b92505081905550505050806112cd9061302c565b9050611126565b508473ffffffffffffffffffffffffffffffffffffffff168673ffffffffffffffffffffffffffffffffffffffff168273ffffffffffffffffffffffffffffffffffffffff167f4a39dc06d4c0dbc64b70af90fd698a233a518aa5d07e595d983b8c0526c8f7fb878760405161134b929190612a23565b60405180910390a4611361818787878787611a94565b505050505050565b600081600001549050919050565b600073ffffffffffffffffffffffffffffffffffffffff168473ffffffffffffffffffffffffffffffffffffffff1614156113e7576040517f08c379a00000000000000000000000000000000000000000000000000000000081526004016113de90612c97565b60405180910390fd5b60006113f161104d565b90506114128160008761140388611c7b565b61140c88611c7b565b87611a8c565b8260008086815260200190815260200160002060008773ffffffffffffffffffffffffffffffffffffffff1673ffffffffffffffffffffffffffffffffffffffff16815260200190815260200160002060008282546114719190612e30565b925050819055508473ffffffffffffffffffffffffffffffffffffffff16600073ffffffffffffffffffffffffffffffffffffffff168273ffffffffffffffffffffffffffffffffffffffff167fc3d58168c5ae7397731d063d5bbf3d657854427343f4c083240f7aacaa2d0f6287876040516114ef929190612cd2565b60405180910390a461150681600087878787611cf5565b5050505050565b6001816000016000828254019250508190555050565b600560009054906101000a900473ffffffffffffffffffffffffffffffffffffffff1673ffffffffffffffffffffffffffffffffffffffff1663a9059cbb83836040518363ffffffff1660e01b81526004016115809291906129d8565b602060405180830381600087803b15801561159a57600080fd5b505af11580156115ae573d6000803e3d6000fd5b505050506040513d601f19601f820116820180604052508101906115d291906123f4565b505050565b6000600360009054906101000a900473ffffffffffffffffffffffffffffffffffffffff16905081600360006101000a81548173ffffffffffffffffffffffffffffffffffffffff021916908373ffffffffffffffffffffffffffffffffffffffff1602179055508173ffffffffffffffffffffffffffffffffffffffff168173ffffffffffffffffffffffffffffffffffffffff167f8be0079c531659141344cd1fd0a4f28419497f9722a3daafe3b4186f6b6457e060405160405180910390a35050565b8173ffffffffffffffffffffffffffffffffffffffff168373ffffffffffffffffffffffffffffffffffffffff16141561170c576040517f08c379a000000000000000000000000000000000000000000000000000000000815260040161170390612c17565b60405180910390fd5b80600160008573ffffffffffffffffffffffffffffffffffffffff1673ffffffffffffffffffffffffffffffffffffffff16815260200190815260200160002060008473ffffffffffffffffffffffffffffffffffffffff1673ffffffffffffffffffffffffffffffffffffffff16815260200190815260200160002060006101000a81548160ff0219169083151502179055508173ffffffffffffffffffffffffffffffffffffffff168373ffffffffffffffffffffffffffffffffffffffff167f17307eab39ab6107e8899845ad3d59bd9653f200f220920489ca2b5937696c31836040516117fd9190612a5a565b60405180910390a3505050565b600073ffffffffffffffffffffffffffffffffffffffff168473ffffffffffffffffffffffffffffffffffffffff16141561187a576040517f08c379a000000000000000000000000000000000000000000000000000000000815260040161187190612b57565b60405180910390fd5b600061188461104d565b90506118a481878761189588611c7b565b61189e88611c7b565b87611a8c565b600080600086815260200190815260200160002060008873ffffffffffffffffffffffffffffffffffffffff1673ffffffffffffffffffffffffffffffffffffffff1681526020019081526020016000205490508381101561193b576040517f08c379a000000000000000000000000000000000000000000000000000000000815260040161193290612bb7565b60405180910390fd5b83810360008087815260200190815260200160002060008973ffffffffffffffffffffffffffffffffffffffff1673ffffffffffffffffffffffffffffffffffffffff168152602001908152602001600020819055508360008087815260200190815260200160002060008873ffffffffffffffffffffffffffffffffffffffff1673ffffffffffffffffffffffffffffffffffffffff16815260200190815260200160002060008282546119f09190612e30565b925050819055508573ffffffffffffffffffffffffffffffffffffffff168773ffffffffffffffffffffffffffffffffffffffff168373ffffffffffffffffffffffffffffffffffffffff167fc3d58168c5ae7397731d063d5bbf3d657854427343f4c083240f7aacaa2d0f628888604051611a6d929190612cd2565b60405180910390a4611a83828888888888611cf5565b50505050505050565b505050505050565b611ab38473ffffffffffffffffffffffffffffffffffffffff16611edc565b15611c73578373ffffffffffffffffffffffffffffffffffffffff1663bc197c8187878686866040518663ffffffff1660e01b8152600401611af9959493929190612916565b602060405180830381600087803b158015611b1357600080fd5b505af1925050508015611b4457506040513d601f19601f82011682018060405250810190611b41919061244e565b60015b611bea57611b50613162565b806308c379a01415611bad5750611b65613703565b80611b705750611baf565b806040517f08c379a0000000000000000000000000000000000000000000000000000000008152600401611ba49190612a75565b60405180910390fd5b505b6040517f08c379a0000000000000000000000000000000000000000000000000000000008152600401611be190612a97565b60405180910390fd5b63bc197c8160e01b7bffffffffffffffffffffffffffffffffffffffffffffffffffffffff1916817bffffffffffffffffffffffffffffffffffffffffffffffffffffffff191614611c71576040517f08c379a0000000000000000000000000000000000000000000000000000000008152600401611c6890612ab7565b60405180910390fd5b505b505050505050565b60606000600167ffffffffffffffff811115611c9a57611c99613133565b5b604051908082528060200260200182016040528015611cc85781602001602082028036833780820191505090505b5090508281600081518110611ce057611cdf613104565b5b60200260200101818152505080915050919050565b611d148473ffffffffffffffffffffffffffffffffffffffff16611edc565b15611ed4578373ffffffffffffffffffffffffffffffffffffffff1663f23a6e6187878686866040518663ffffffff1660e01b8152600401611d5a95949392919061297e565b602060405180830381600087803b158015611d7457600080fd5b505af1925050508015611da557506040513d601f19601f82011682018060405250810190611da2919061244e565b60015b611e4b57611db1613162565b806308c379a01415611e0e5750611dc6613703565b80611dd15750611e10565b806040517f08c379a0000000000000000000000000000000000000000000000000000000008152600401611e059190612a75565b60405180910390fd5b505b6040517f08c379a0000000000000000000000000000000000000000000000000000000008152600401611e4290612a97565b60405180910390fd5b63f23a6e6160e01b7bffffffffffffffffffffffffffffffffffffffffffffffffffffffff1916817bffffffffffffffffffffffffffffffffffffffffffffffffffffffff191614611ed2576040517f08c379a0000000000000000000000000000000000000000000000000000000008152600401611ec990612ab7565b60405180910390fd5b505b505050505050565b6000808273ffffffffffffffffffffffffffffffffffffffff163b119050919050565b6000611f12611f0d84612d20565b612cfb565b90508083825260208201905082856020860282011115611f3557611f34613189565b5b60005b85811015611f655781611f4b8882612021565b845260208401935060208301925050600181019050611f38565b5050509392505050565b6000611f82611f7d84612d4c565b612cfb565b90508083825260208201905082856020860282011115611fa557611fa4613189565b5b60005b85811015611fd55781611fbb8882612114565b845260208401935060208301925050600181019050611fa8565b5050509392505050565b6000611ff2611fed84612d78565b612cfb565b90508281526020810184848401111561200e5761200d61318e565b5b612019848285612fb9565b509392505050565b60008135905061203081613799565b92915050565b600082601f83011261204b5761204a613184565b5b813561205b848260208601611eff565b91505092915050565b600082601f83011261207957612078613184565b5b8135612089848260208601611f6f565b91505092915050565b6000813590506120a1816137b0565b92915050565b6000815190506120b6816137b0565b92915050565b6000813590506120cb816137c7565b92915050565b6000815190506120e0816137c7565b92915050565b600082601f8301126120fb576120fa613184565b5b813561210b848260208601611fdf565b91505092915050565b600081359050612123816137de565b92915050565b60006020828403121561213f5761213e613198565b5b600061214d84828501612021565b91505092915050565b6000806040838503121561216d5761216c613198565b5b600061217b85828601612021565b925050602061218c85828601612021565b9150509250929050565b600080600080600060a086880312156121b2576121b1613198565b5b60006121c088828901612021565b95505060206121d188828901612021565b945050604086013567ffffffffffffffff8111156121f2576121f1613193565b5b6121fe88828901612064565b935050606086013567ffffffffffffffff81111561221f5761221e613193565b5b61222b88828901612064565b925050608086013567ffffffffffffffff81111561224c5761224b613193565b5b612258888289016120e6565b9150509295509295909350565b600080600080600060a0868803121561228157612280613198565b5b600061228f88828901612021565b95505060206122a088828901612021565b94505060406122b188828901612114565b93505060606122c288828901612114565b925050608086013567ffffffffffffffff8111156122e3576122e2613193565b5b6122ef888289016120e6565b9150509295509295909350565b6000806040838503121561231357612312613198565b5b600061232185828601612021565b925050602061233285828601612092565b9150509250929050565b6000806040838503121561235357612352613198565b5b600061236185828601612021565b925050602061237285828601612114565b9150509250929050565b6000806040838503121561239357612392613198565b5b600083013567ffffffffffffffff8111156123b1576123b0613193565b5b6123bd85828601612036565b925050602083013567ffffffffffffffff8111156123de576123dd613193565b5b6123ea85828601612064565b9150509250929050565b60006020828403121561240a57612409613198565b5b6000612418848285016120a7565b91505092915050565b60006020828403121561243757612436613198565b5b6000612445848285016120bc565b91505092915050565b60006020828403121561246457612463613198565b5b6000612472848285016120d1565b91505092915050565b60006020828403121561249157612490613198565b5b600061249f84828501612114565b91505092915050565b60006124b4838361289b565b60208301905092915050565b6124c981612f45565b82525050565b60006124da82612db9565b6124e48185612de7565b93506124ef83612da9565b8060005b8381101561252057815161250788826124a8565b975061251283612dda565b9250506001810190506124f3565b5085935050505092915050565b61253681612f57565b82525050565b600061254782612dc4565b6125518185612df8565b9350612561818560208601612fc8565b61256a8161319d565b840191505092915050565b600061258082612dcf565b61258a8185612e14565b935061259a818560208601612fc8565b6125a38161319d565b840191505092915050565b60006125b982612dcf565b6125c38185612e25565b93506125d3818560208601612fc8565b80840191505092915050565b60006125ec603483612e14565b91506125f7826131bb565b604082019050919050565b600061260f602883612e14565b915061261a8261320a565b604082019050919050565b6000612632602b83612e14565b915061263d82613259565b604082019050919050565b6000612655602683612e14565b9150612660826132a8565b604082019050919050565b6000612678605983612e25565b9150612683826132f7565b605982019050919050565b600061269b602383612e14565b91506126a68261336c565b604082019050919050565b60006126be602983612e14565b91506126c9826133bb565b604082019050919050565b60006126e1602583612e14565b91506126ec8261340a565b604082019050919050565b6000612704603283612e14565b915061270f82613459565b604082019050919050565b6000612727601a83612e14565b9150612732826134a8565b602082019050919050565b600061274a602a83612e14565b9150612755826134d1565b604082019050919050565b600061276d600583612e25565b915061277882613520565b600582019050919050565b6000612790602083612e14565b915061279b82613549565b602082019050919050565b60006127b3600083612e09565b91506127be82613572565b600082019050919050565b60006127d6601a83612e14565b91506127e182613575565b602082019050919050565b60006127f9602983612e14565b91506128048261359e565b604082019050919050565b600061281c602983612e14565b9150612827826135ed565b604082019050919050565b600061283f601b83612e14565b915061284a8261363c565b602082019050919050565b6000612862602883612e14565b915061286d82613665565b604082019050919050565b6000612885602183612e14565b9150612890826136b4565b604082019050919050565b6128a481612faf565b82525050565b6128b381612faf565b82525050565b60006128c48261266b565b91506128d082846125ae565b91506128db82612760565b915081905092915050565b60006128f1826127a6565b9150819050919050565b600060208201905061291060008301846124c0565b92915050565b600060a08201905061292b60008301886124c0565b61293860208301876124c0565b818103604083015261294a81866124cf565b9050818103606083015261295e81856124cf565b90508181036080830152612972818461253c565b90509695505050505050565b600060a08201905061299360008301886124c0565b6129a060208301876124c0565b6129ad60408301866128aa565b6129ba60608301856128aa565b81810360808301526129cc818461253c565b90509695505050505050565b60006040820190506129ed60008301856124c0565b6129fa60208301846128aa565b9392505050565b60006020820190508181036000830152612a1b81846124cf565b905092915050565b60006040820190508181036000830152612a3d81856124cf565b90508181036020830152612a5181846124cf565b90509392505050565b6000602082019050612a6f600083018461252d565b92915050565b60006020820190508181036000830152612a8f8184612575565b905092915050565b60006020820190508181036000830152612ab0816125df565b9050919050565b60006020820190508181036000830152612ad081612602565b9050919050565b60006020820190508181036000830152612af081612625565b9050919050565b60006020820190508181036000830152612b1081612648565b9050919050565b60006020820190508181036000830152612b308161268e565b9050919050565b60006020820190508181036000830152612b50816126b1565b9050919050565b60006020820190508181036000830152612b70816126d4565b9050919050565b60006020820190508181036000830152612b90816126f7565b9050919050565b60006020820190508181036000830152612bb08161271a565b9050919050565b60006020820190508181036000830152612bd08161273d565b9050919050565b60006020820190508181036000830152612bf081612783565b9050919050565b60006020820190508181036000830152612c10816127c9565b9050919050565b60006020820190508181036000830152612c30816127ec565b9050919050565b60006020820190508181036000830152612c508161280f565b9050919050565b60006020820190508181036000830152612c7081612832565b9050919050565b60006020820190508181036000830152612c9081612855565b9050919050565b60006020820190508181036000830152612cb081612878565b9050919050565b6000602082019050612ccc60008301846128aa565b92915050565b6000604082019050612ce760008301856128aa565b612cf460208301846128aa565b9392505050565b6000612d05612d16565b9050612d118282612ffb565b919050565b6000604051905090565b600067ffffffffffffffff821115612d3b57612d3a613133565b5b602082029050602081019050919050565b600067ffffffffffffffff821115612d6757612d66613133565b5b602082029050602081019050919050565b600067ffffffffffffffff821115612d9357612d92613133565b5b612d9c8261319d565b9050602081019050919050565b6000819050602082019050919050565b600081519050919050565b600081519050919050565b600081519050919050565b6000602082019050919050565b600082825260208201905092915050565b600082825260208201905092915050565b600081905092915050565b600082825260208201905092915050565b600081905092915050565b6000612e3b82612faf565b9150612e4683612faf565b9250827fffffffffffffffffffffffffffffffffffffffffffffffffffffffffffffffff03821115612e7b57612e7a6130a6565b5b828201905092915050565b6000612e9182612faf565b9150612e9c83612faf565b925082612eac57612eab6130d5565b5b828204905092915050565b6000612ec282612faf565b9150612ecd83612faf565b9250817fffffffffffffffffffffffffffffffffffffffffffffffffffffffffffffffff0483118215151615612f0657612f056130a6565b5b828202905092915050565b6000612f1c82612faf565b9150612f2783612faf565b925082821015612f3a57612f396130a6565b5b828203905092915050565b6000612f5082612f8f565b9050919050565b60008115159050919050565b60007fffffffff0000000000000000000000000000000000000000000000000000000082169050919050565b600073ffffffffffffffffffffffffffffffffffffffff82169050919050565b6000819050919050565b82818337600083830152505050565b60005b83811015612fe6578082015181840152602081019050612fcb565b83811115612ff5576000848401525b50505050565b6130048261319d565b810181811067ffffffffffffffff8211171561302357613022613133565b5b80604052505050565b600061303782612faf565b91507fffffffffffffffffffffffffffffffffffffffffffffffffffffffffffffffff82141561306a576130696130a6565b5b600182019050919050565b600061308082612faf565b915061308b83612faf565b92508261309b5761309a6130d5565b5b828206905092915050565b7f4e487b7100000000000000000000000000000000000000000000000000000000600052601160045260246000fd5b7f4e487b7100000000000000000000000000000000000000000000000000000000600052601260045260246000fd5b7f4e487b7100000000000000000000000000000000000000000000000000000000600052603260045260246000fd5b7f4e487b7100000000000000000000000000000000000000000000000000000000600052604160045260246000fd5b600060033d11156131815760046000803e61317e6000516131ae565b90505b90565b600080fd5b600080fd5b600080fd5b600080fd5b600080fd5b6000601f19601f8301169050919050565b60008160e01c9050919050565b7f455243313135353a207472616e7366657220746f206e6f6e204552433131353560008201527f526563656976657220696d706c656d656e746572000000000000000000000000602082015250565b7f455243313135353a204552433131353552656365697665722072656a6563746560008201527f6420746f6b656e73000000000000000000000000000000000000000000000000602082015250565b7f455243313135353a2062616c616e636520717565727920666f7220746865207a60008201527f65726f2061646472657373000000000000000000000000000000000000000000602082015250565b7f4f776e61626c653a206e6577206f776e657220697320746865207a65726f206160008201527f6464726573730000000000000000000000000000000000000000000000000000602082015250565b7f68747470733a2f2f62616679626569636c37746e75647778686d79656e716c3260008201527f7a327165726266646534377a71766574337779626a67676b6c696a7371366f6a60208201527f7366342e697066732e6e667473746f726167652e6c696e6b2f00000000000000604082015250565b7f43656c744d696e7465723a20696e76616c696420776974686472617720616d6f60008201527f756e740000000000000000000000000000000000000000000000000000000000602082015250565b7f455243313135353a2063616c6c6572206973206e6f74206f776e6572206e6f7260008201527f20617070726f7665640000000000000000000000000000000000000000000000602082015250565b7f455243313135353a207472616e7366657220746f20746865207a65726f20616460008201527f6472657373000000000000000000000000000000000000000000000000000000602082015250565b7f455243313135353a207472616e736665722063616c6c6572206973206e6f742060008201527f6f776e6572206e6f7220617070726f7665640000000000000000000000000000602082015250565b7f43656c744d696e7465723a206578636363656420616d6f756e74000000000000600082015250565b7f455243313135353a20696e73756666696369656e742062616c616e636520666f60008201527f72207472616e7366657200000000000000000000000000000000000000000000602082015250565b7f2e6a736f6e000000000000000000000000000000000000000000000000000000600082015250565b7f4f776e61626c653a2063616c6c6572206973206e6f7420746865206f776e6572600082015250565b50565b7f43656c744d696e7465723a20696e76616c696420616d6f756e74000000000000600082015250565b7f455243313135353a2073657474696e6720617070726f76616c2073746174757360008201527f20666f722073656c660000000000000000000000000000000000000000000000602082015250565b7f455243313135353a206163636f756e747320616e6420696473206c656e67746860008201527f206d69736d617463680000000000000000000000000000000000000000000000602082015250565b7f43656c744d696e7465723a206e6f7420656e6f7567682066756e640000000000600082015250565b7f455243313135353a2069647320616e6420616d6f756e7473206c656e6774682060008201527f6d69736d61746368000000000000000000000000000000000000000000000000602082015250565b7f455243313135353a206d696e7420746f20746865207a65726f2061646472657360008201527f7300000000000000000000000000000000000000000000000000000000000000602082015250565b600060443d101561371357613796565b61371b612d16565b60043d036004823e80513d602482011167ffffffffffffffff82111715613743575050613796565b808201805167ffffffffffffffff8111156137615750505050613796565b80602083010160043d03850181111561377e575050505050613796565b61378d82602001850186612ffb565b82955050505050505b90565b6137a281612f45565b81146137ad57600080fd5b50565b6137b981612f57565b81146137c457600080fd5b50565b6137d081612f63565b81146137db57600080fd5b50565b6137e781612faf565b81146137f257600080fd5b5056fea2646970667358221220739db3c194fb0225281513f4c74285e743152626d6e02938ecfde50886d51f9864736f6c6343000807003368747470733a2f2f62616679626569636c37746e75647778686d79656e716c327a327165726266646534377a71766574337779626a67676b6c696a7371366f6a7366342e697066732e6e667473746f726167652e6c696e6b2f",
  "linkReferences": {},
  "deployedLinkReferences": {}
}