{
  "_format": "hh-sol-artifact-1",
  "contractName": "CeltMinter",
  "sourceName": "contracts/CeltMinter.sol",
  "abi": [
    {
      "inputs": [
        {
          "internalType": "address",
          "name": "tokenContract",
          "type": "address"
        }
      ],
      "stateMutability": "nonpayable",
      "type": "constructor"
    },
    {
      "anonymous": false,
      "inputs": [
        {
          "indexed": true,
          "internalType": "address",
          "name": "account",
          "type": "address"
        },
        {
          "indexed": true,
          "internalType": "address",
          "name": "operator",
          "type": "address"
        },
        {
          "indexed": false,
          "internalType": "bool",
          "name": "approved",
          "type": "bool"
        }
      ],
      "name": "ApprovalForAll",
      "type": "event"
    },
    {
      "anonymous": false,
      "inputs": [
        {
          "indexed": true,
          "internalType": "address",
          "name": "previousOwner",
          "type": "address"
        },
        {
          "indexed": true,
          "internalType": "address",
          "name": "newOwner",
          "type": "address"
        }
      ],
      "name": "OwnershipTransferred",
      "type": "event"
    },
    {
      "anonymous": false,
      "inputs": [
        {
          "indexed": true,
          "internalType": "address",
          "name": "operator",
          "type": "address"
        },
        {
          "indexed": true,
          "internalType": "address",
          "name": "from",
          "type": "address"
        },
        {
          "indexed": true,
          "internalType": "address",
          "name": "to",
          "type": "address"
        },
        {
          "indexed": false,
          "internalType": "uint256[]",
          "name": "ids",
          "type": "uint256[]"
        },
        {
          "indexed": false,
          "internalType": "uint256[]",
          "name": "values",
          "type": "uint256[]"
        }
      ],
      "name": "TransferBatch",
      "type": "event"
    },
    {
      "anonymous": false,
      "inputs": [
        {
          "indexed": true,
          "internalType": "address",
          "name": "operator",
          "type": "address"
        },
        {
          "indexed": true,
          "internalType": "address",
          "name": "from",
          "type": "address"
        },
        {
          "indexed": true,
          "internalType": "address",
          "name": "to",
          "type": "address"
        },
        {
          "indexed": false,
          "internalType": "uint256",
          "name": "id",
          "type": "uint256"
        },
        {
          "indexed": false,
          "internalType": "uint256",
          "name": "value",
          "type": "uint256"
        }
      ],
      "name": "TransferSingle",
      "type": "event"
    },
    {
      "anonymous": false,
      "inputs": [
        {
          "indexed": false,
          "internalType": "string",
          "name": "value",
          "type": "string"
        },
        {
          "indexed": true,
          "internalType": "uint256",
          "name": "id",
          "type": "uint256"
        }
      ],
      "name": "URI",
      "type": "event"
    },
    {
      "inputs": [
        {
          "internalType": "address",
          "name": "account",
          "type": "address"
        },
        {
          "internalType": "uint256",
          "name": "id",
          "type": "uint256"
        }
      ],
      "name": "balanceOf",
      "outputs": [
        {
          "internalType": "uint256",
          "name": "",
          "type": "uint256"
        }
      ],
      "stateMutability": "view",
      "type": "function"
    },
    {
      "inputs": [
        {
          "internalType": "address[]",
          "name": "accounts",
          "type": "address[]"
        },
        {
          "internalType": "uint256[]",
          "name": "ids",
          "type": "uint256[]"
        }
      ],
      "name": "balanceOfBatch",
      "outputs": [
        {
          "internalType": "uint256[]",
          "name": "",
          "type": "uint256[]"
        }
      ],
      "stateMutability": "view",
      "type": "function"
    },
    {
      "inputs": [
        {
          "internalType": "uint256",
          "name": "tokenId",
          "type": "uint256"
        }
      ],
      "name": "burn",
      "outputs": [],
      "stateMutability": "nonpayable",
      "type": "function"
    },
    {
      "inputs": [
        {
          "internalType": "uint256",
          "name": "amount",
          "type": "uint256"
        },
        {
          "internalType": "bool",
          "name": "levelup",
          "type": "bool"
        }
      ],
      "name": "claim",
      "outputs": [],
      "stateMutability": "payable",
      "type": "function"
    },
    {
      "inputs": [
        {
          "internalType": "address",
          "name": "account",
          "type": "address"
        },
        {
          "internalType": "address",
          "name": "operator",
          "type": "address"
        }
      ],
      "name": "isApprovedForAll",
      "outputs": [
        {
          "internalType": "bool",
          "name": "",
          "type": "bool"
        }
      ],
      "stateMutability": "view",
      "type": "function"
    },
    {
      "inputs": [],
      "name": "owner",
      "outputs": [
        {
          "internalType": "address",
          "name": "",
          "type": "address"
        }
      ],
      "stateMutability": "view",
      "type": "function"
    },
    {
      "inputs": [],
      "name": "renounceOwnership",
      "outputs": [],
      "stateMutability": "nonpayable",
      "type": "function"
    },
    {
      "inputs": [
        {
          "internalType": "address",
          "name": "from",
          "type": "address"
        },
        {
          "internalType": "address",
          "name": "to",
          "type": "address"
        },
        {
          "internalType": "uint256[]",
          "name": "ids",
          "type": "uint256[]"
        },
        {
          "internalType": "uint256[]",
          "name": "amounts",
          "type": "uint256[]"
        },
        {
          "internalType": "bytes",
          "name": "data",
          "type": "bytes"
        }
      ],
      "name": "safeBatchTransferFrom",
      "outputs": [],
      "stateMutability": "nonpayable",
      "type": "function"
    },
    {
      "inputs": [
        {
          "internalType": "address",
          "name": "from",
          "type": "address"
        },
        {
          "internalType": "address",
          "name": "to",
          "type": "address"
        },
        {
          "internalType": "uint256",
          "name": "id",
          "type": "uint256"
        },
        {
          "internalType": "uint256",
          "name": "amount",
          "type": "uint256"
        },
        {
          "internalType": "bytes",
          "name": "data",
          "type": "bytes"
        }
      ],
      "name": "safeTransferFrom",
      "outputs": [],
      "stateMutability": "nonpayable",
      "type": "function"
    },
    {
      "inputs": [
        {
          "internalType": "address",
          "name": "operator",
          "type": "address"
        },
        {
          "internalType": "bool",
          "name": "approved",
          "type": "bool"
        }
      ],
      "name": "setApprovalForAll",
      "outputs": [],
      "stateMutability": "nonpayable",
      "type": "function"
    },
    {
      "inputs": [
        {
          "internalType": "uint256",
          "name": "fee",
          "type": "uint256"
        }
      ],
      "name": "setFee",
      "outputs": [],
      "stateMutability": "nonpayable",
      "type": "function"
    },
    {
      "inputs": [
        {
          "internalType": "uint256",
          "name": "airdropAmount",
          "type": "uint256"
        }
      ],
      "name": "setGreenFalAirdropAmount",
      "outputs": [],
      "stateMutability": "nonpayable",
      "type": "function"
    },
    {
      "inputs": [
        {
          "internalType": "string",
          "name": "domain",
          "type": "string"
        }
      ],
      "name": "setUri",
      "outputs": [],
      "stateMutability": "nonpayable",
      "type": "function"
    },
    {
      "inputs": [
        {
          "internalType": "bytes4",
          "name": "interfaceId",
          "type": "bytes4"
        }
      ],
      "name": "supportsInterface",
      "outputs": [
        {
          "internalType": "bool",
          "name": "",
          "type": "bool"
        }
      ],
      "stateMutability": "view",
      "type": "function"
    },
    {
      "inputs": [
        {
          "internalType": "address",
          "name": "newOwner",
          "type": "address"
        }
      ],
      "name": "transferOwnership",
      "outputs": [],
      "stateMutability": "nonpayable",
      "type": "function"
    },
    {
      "inputs": [
        {
          "internalType": "uint256",
          "name": "_tokenId",
          "type": "uint256"
        }
      ],
      "name": "uri",
      "outputs": [
        {
          "internalType": "string",
          "name": "",
          "type": "string"
        }
      ],
      "stateMutability": "view",
      "type": "function"
    },
    {
      "inputs": [
        {
          "internalType": "uint256",
          "name": "withdrawAmount",
          "type": "uint256"
        }
      ],
      "name": "withdraw",
      "outputs": [],
      "stateMutability": "nonpayable",
      "type": "function"
    }
  ],
  "bytecode": "0x608060405269021e19e0c9bab2400000600655662386f26fc100006007553480156200002a57600080fd5b50604051620042d7380380620042d7833981810160405281019062000050919062000295565b6040518060800160405280605981526020016200427e605991396200007b81620000e460201b60201c565b506200009c620000906200010060201b60201c565b6200010860201b60201c565b80600560006101000a81548173ffffffffffffffffffffffffffffffffffffffff021916908373ffffffffffffffffffffffffffffffffffffffff160217905550506200037f565b8060029080519060200190620000fc929190620001ce565b5050565b600033905090565b6000600360009054906101000a900473ffffffffffffffffffffffffffffffffffffffff16905081600360006101000a81548173ffffffffffffffffffffffffffffffffffffffff021916908373ffffffffffffffffffffffffffffffffffffffff1602179055508173ffffffffffffffffffffffffffffffffffffffff168173ffffffffffffffffffffffffffffffffffffffff167f8be0079c531659141344cd1fd0a4f28419497f9722a3daafe3b4186f6b6457e060405160405180910390a35050565b828054620001dc90620002fb565b90600052602060002090601f0160209004810192826200020057600085556200024c565b82601f106200021b57805160ff19168380011785556200024c565b828001600101855582156200024c579182015b828111156200024b5782518255916020019190600101906200022e565b5b5090506200025b91906200025f565b5090565b5b808211156200027a57600081600090555060010162000260565b5090565b6000815190506200028f8162000365565b92915050565b600060208284031215620002ae57620002ad62000360565b5b6000620002be848285016200027e565b91505092915050565b6000620002d482620002db565b9050919050565b600073ffffffffffffffffffffffffffffffffffffffff82169050919050565b600060028204905060018216806200031457607f821691505b602082108114156200032b576200032a62000331565b5b50919050565b7f4e487b7100000000000000000000000000000000000000000000000000000000600052602260045260246000fd5b600080fd5b6200037081620002c7565b81146200037c57600080fd5b50565b613eef806200038f6000396000f3fe6080604052600436106100fd5760003560e01c806369fe0e2d116100955780639b642de1116100645780639b642de114610321578063a22cb4651461034a578063e985e9c514610373578063f242432a146103b0578063f2fde38b146103d9576100fd565b806369fe0e2d1461029a578063715018a6146102c357806371baa1af146102da5780638da5cb5b146102f6576100fd565b80632e1a7d4d116100d15780632e1a7d4d146101e25780632eb2c2d61461020b57806342966c68146102345780634e1273f41461025d576100fd565b8062fdd58e1461010257806301ffc9a71461013f5780630e89341c1461017c5780630ffcd681146101b9575b600080fd5b34801561010e57600080fd5b50610129600480360381019061012491906127c1565b610402565b604051610136919061324b565b60405180910390f35b34801561014b57600080fd5b50610166600480360381019061016191906128a6565b6104cb565b6040516101739190612fae565b60405180910390f35b34801561018857600080fd5b506101a3600480360381019061019e9190612949565b6105ad565b6040516101b09190612fc9565b60405180910390f35b3480156101c557600080fd5b506101e060048036038101906101db9190612949565b6105ea565b005b3480156101ee57600080fd5b5061020960048036038101906102049190612949565b6106b3565b005b34801561021757600080fd5b50610232600480360381019061022d919061261b565b61085d565b005b34801561024057600080fd5b5061025b60048036038101906102569190612949565b6108fe565b005b34801561026957600080fd5b50610284600480360381019061027f9190612801565b61090d565b6040516102919190612f55565b60405180910390f35b3480156102a657600080fd5b506102c160048036038101906102bc9190612949565b610a26565b005b3480156102cf57600080fd5b506102d8610aef565b005b6102f460048036038101906102ef9190612976565b610b77565b005b34801561030257600080fd5b5061030b610cc8565b6040516103189190612e4f565b60405180910390f35b34801561032d57600080fd5b5061034860048036038101906103439190612900565b610cf2565b005b34801561035657600080fd5b50610371600480360381019061036c9190612781565b610d7a565b005b34801561037f57600080fd5b5061039a600480360381019061039591906125db565b610d90565b6040516103a79190612fae565b60405180910390f35b3480156103bc57600080fd5b506103d760048036038101906103d291906126ea565b610e24565b005b3480156103e557600080fd5b5061040060048036038101906103fb91906125ae565b610ec5565b005b60008073ffffffffffffffffffffffffffffffffffffffff168373ffffffffffffffffffffffffffffffffffffffff161415610473576040517f08c379a000000000000000000000000000000000000000000000000000000000815260040161046a9061302b565b60405180910390fd5b60008083815260200190815260200160002060008473ffffffffffffffffffffffffffffffffffffffff1673ffffffffffffffffffffffffffffffffffffffff16815260200190815260200160002054905092915050565b60007fd9b67a26000000000000000000000000000000000000000000000000000000007bffffffffffffffffffffffffffffffffffffffffffffffffffffffff1916827bffffffffffffffffffffffffffffffffffffffffffffffffffffffff1916148061059657507f0e89341c000000000000000000000000000000000000000000000000000000007bffffffffffffffffffffffffffffffffffffffffffffffffffffffff1916827bffffffffffffffffffffffffffffffffffffffffffffffffffffffff1916145b806105a657506105a582610fbd565b5b9050919050565b60606105c46001836105bf91906133f5565b611027565b6040516020016105d49190612e22565b6040516020818303038152906040529050919050565b6105f2611188565b73ffffffffffffffffffffffffffffffffffffffff16610610610cc8565b73ffffffffffffffffffffffffffffffffffffffff1614610666576040517f08c379a000000000000000000000000000000000000000000000000000000000815260040161065d9061316b565b60405180910390fd5b600081116106a9576040517f08c379a00000000000000000000000000000000000000000000000000000000081526004016106a09061318b565b60405180910390fd5b8060068190555050565b6106bb611188565b73ffffffffffffffffffffffffffffffffffffffff166106d9610cc8565b73ffffffffffffffffffffffffffffffffffffffff161461072f576040517f08c379a00000000000000000000000000000000000000000000000000000000081526004016107269061316b565b60405180910390fd5b60008111610772576040517f08c379a00000000000000000000000000000000000000000000000000000000081526004016107699061308b565b60405180910390fd5b478111156107ec5760003073ffffffffffffffffffffffffffffffffffffffff16476040516107a090612e0d565b60006040518083038185875af1925050503d80600081146107dd576040519150601f19603f3d011682016040523d82523d6000602084013e6107e2565b606091505b505090505061085a565b60003073ffffffffffffffffffffffffffffffffffffffff168260405161081290612e0d565b60006040518083038185875af1925050503d806000811461084f576040519150601f19603f3d011682016040523d82523d6000602084013e610854565b606091505b50509050505b50565b610865611188565b73ffffffffffffffffffffffffffffffffffffffff168573ffffffffffffffffffffffffffffffffffffffff1614806108ab57506108aa856108a5611188565b610d90565b5b6108ea576040517f08c379a00000000000000000000000000000000000000000000000000000000081526004016108e1906130eb565b60405180910390fd5b6108f78585858585611190565b5050505050565b61090a338260016114a4565b50565b60608151835114610953576040517f08c379a000000000000000000000000000000000000000000000000000000000815260040161094a906131cb565b60405180910390fd5b6000835167ffffffffffffffff8111156109705761096f613759565b5b60405190808252806020026020018201604052801561099e5781602001602082028036833780820191505090505b50905060005b8451811015610a1b576109eb8582815181106109c3576109c261372a565b5b60200260200101518583815181106109de576109dd61372a565b5b6020026020010151610402565b8282815181106109fe576109fd61372a565b5b60200260200101818152505080610a1490613623565b90506109a4565b508091505092915050565b610a2e611188565b73ffffffffffffffffffffffffffffffffffffffff16610a4c610cc8565b73ffffffffffffffffffffffffffffffffffffffff1614610aa2576040517f08c379a0000000000000000000000000000000000000000000000000000000008152600401610a999061316b565b60405180910390fd5b60008111610ae5576040517f08c379a0000000000000000000000000000000000000000000000000000000008152600401610adc9061318b565b60405180910390fd5b8060078190555050565b610af7611188565b73ffffffffffffffffffffffffffffffffffffffff16610b15610cc8565b73ffffffffffffffffffffffffffffffffffffffff1614610b6b576040517f08c379a0000000000000000000000000000000000000000000000000000000008152600401610b629061316b565b60405180910390fd5b610b7560006116c1565b565b81600754610b85919061347c565b3414610bc6576040517f08c379a0000000000000000000000000000000000000000000000000000000008152600401610bbd906131eb565b60405180910390fd5b6103e88210610c0a576040517f08c379a0000000000000000000000000000000000000000000000000000000008152600401610c019061310b565b60405180910390fd5b60005b82811015610c7d57610c6033610c236004611787565b60016040518060400160405280600481526020017f3078303000000000000000000000000000000000000000000000000000000000815250611795565b610c6a600461192b565b8080610c7590613623565b915050610c0d565b508015610cac57610ca733600560065485610c98919061347c565b610ca2919061347c565b611941565b610cc4565b610cc33360065484610cbe919061347c565b611941565b5b5050565b6000600360009054906101000a900473ffffffffffffffffffffffffffffffffffffffff16905090565b610cfa611188565b73ffffffffffffffffffffffffffffffffffffffff16610d18610cc8565b73ffffffffffffffffffffffffffffffffffffffff1614610d6e576040517f08c379a0000000000000000000000000000000000000000000000000000000008152600401610d659061316b565b60405180910390fd5b610d77816119f5565b50565b610d8c610d85611188565b8383611a0f565b5050565b6000600160008473ffffffffffffffffffffffffffffffffffffffff1673ffffffffffffffffffffffffffffffffffffffff16815260200190815260200160002060008373ffffffffffffffffffffffffffffffffffffffff1673ffffffffffffffffffffffffffffffffffffffff16815260200190815260200160002060009054906101000a900460ff16905092915050565b610e2c611188565b73ffffffffffffffffffffffffffffffffffffffff168573ffffffffffffffffffffffffffffffffffffffff161480610e725750610e7185610e6c611188565b610d90565b5b610eb1576040517f08c379a0000000000000000000000000000000000000000000000000000000008152600401610ea8906130ab565b60405180910390fd5b610ebe8585858585611b7c565b5050505050565b610ecd611188565b73ffffffffffffffffffffffffffffffffffffffff16610eeb610cc8565b73ffffffffffffffffffffffffffffffffffffffff1614610f41576040517f08c379a0000000000000000000000000000000000000000000000000000000008152600401610f389061316b565b60405180910390fd5b600073ffffffffffffffffffffffffffffffffffffffff168173ffffffffffffffffffffffffffffffffffffffff161415610fb1576040517f08c379a0000000000000000000000000000000000000000000000000000000008152600401610fa89061304b565b60405180910390fd5b610fba816116c1565b50565b60007f01ffc9a7000000000000000000000000000000000000000000000000000000007bffffffffffffffffffffffffffffffffffffffffffffffffffffffff1916827bffffffffffffffffffffffffffffffffffffffffffffffffffffffff1916149050919050565b6060600082141561106f576040518060400160405280600181526020017f30000000000000000000000000000000000000000000000000000000000000008152509050611183565b600082905060005b600082146110a157808061108a90613623565b915050600a8261109a919061344b565b9150611077565b60008167ffffffffffffffff8111156110bd576110bc613759565b5b6040519080825280601f01601f1916602001820160405280156110ef5781602001600182028036833780820191505090505b5090505b6000851461117c5760018261110891906134d6565b9150600a85611117919061366c565b603061112391906133f5565b60f81b8183815181106111395761113861372a565b5b60200101907effffffffffffffffffffffffffffffffffffffffffffffffffffffffffffff1916908160001a905350600a85611175919061344b565b94506110f3565b8093505050505b919050565b600033905090565b81518351146111d4576040517f08c379a00000000000000000000000000000000000000000000000000000000081526004016111cb9061320b565b60405180910390fd5b600073ffffffffffffffffffffffffffffffffffffffff168473ffffffffffffffffffffffffffffffffffffffff161415611244576040517f08c379a000000000000000000000000000000000000000000000000000000000815260040161123b906130cb565b60405180910390fd5b600061124e611188565b905061125e818787878787611dfe565b60005b845181101561140f57600085828151811061127f5761127e61372a565b5b60200260200101519050600085838151811061129e5761129d61372a565b5b60200260200101519050600080600084815260200190815260200160002060008b73ffffffffffffffffffffffffffffffffffffffff1673ffffffffffffffffffffffffffffffffffffffff1681526020019081526020016000205490508181101561133f576040517f08c379a00000000000000000000000000000000000000000000000000000000081526004016113369061314b565b60405180910390fd5b81810360008085815260200190815260200160002060008c73ffffffffffffffffffffffffffffffffffffffff1673ffffffffffffffffffffffffffffffffffffffff168152602001908152602001600020819055508160008085815260200190815260200160002060008b73ffffffffffffffffffffffffffffffffffffffff1673ffffffffffffffffffffffffffffffffffffffff16815260200190815260200160002060008282546113f491906133f5565b925050819055505050508061140890613623565b9050611261565b508473ffffffffffffffffffffffffffffffffffffffff168673ffffffffffffffffffffffffffffffffffffffff168273ffffffffffffffffffffffffffffffffffffffff167f4a39dc06d4c0dbc64b70af90fd698a233a518aa5d07e595d983b8c0526c8f7fb8787604051611486929190612f77565b60405180910390a461149c818787878787611e06565b505050505050565b600073ffffffffffffffffffffffffffffffffffffffff168373ffffffffffffffffffffffffffffffffffffffff161415611514576040517f08c379a000000000000000000000000000000000000000000000000000000000815260040161150b9061312b565b60405180910390fd5b600061151e611188565b905061154e8185600061153087611fed565b61153987611fed565b60405180602001604052806000815250611dfe565b600080600085815260200190815260200160002060008673ffffffffffffffffffffffffffffffffffffffff1673ffffffffffffffffffffffffffffffffffffffff168152602001908152602001600020549050828110156115e5576040517f08c379a00000000000000000000000000000000000000000000000000000000081526004016115dc9061306b565b60405180910390fd5b82810360008086815260200190815260200160002060008773ffffffffffffffffffffffffffffffffffffffff1673ffffffffffffffffffffffffffffffffffffffff16815260200190815260200160002081905550600073ffffffffffffffffffffffffffffffffffffffff168573ffffffffffffffffffffffffffffffffffffffff168373ffffffffffffffffffffffffffffffffffffffff167fc3d58168c5ae7397731d063d5bbf3d657854427343f4c083240f7aacaa2d0f6287876040516116b2929190613266565b60405180910390a45050505050565b6000600360009054906101000a900473ffffffffffffffffffffffffffffffffffffffff16905081600360006101000a81548173ffffffffffffffffffffffffffffffffffffffff021916908373ffffffffffffffffffffffffffffffffffffffff1602179055508173ffffffffffffffffffffffffffffffffffffffff168173ffffffffffffffffffffffffffffffffffffffff167f8be0079c531659141344cd1fd0a4f28419497f9722a3daafe3b4186f6b6457e060405160405180910390a35050565b600081600001549050919050565b600073ffffffffffffffffffffffffffffffffffffffff168473ffffffffffffffffffffffffffffffffffffffff161415611805576040517f08c379a00000000000000000000000000000000000000000000000000000000081526004016117fc9061322b565b60405180910390fd5b600061180f611188565b90506118308160008761182188611fed565b61182a88611fed565b87611dfe565b8260008086815260200190815260200160002060008773ffffffffffffffffffffffffffffffffffffffff1673ffffffffffffffffffffffffffffffffffffffff168152602001908152602001600020600082825461188f91906133f5565b925050819055508473ffffffffffffffffffffffffffffffffffffffff16600073ffffffffffffffffffffffffffffffffffffffff168273ffffffffffffffffffffffffffffffffffffffff167fc3d58168c5ae7397731d063d5bbf3d657854427343f4c083240f7aacaa2d0f62878760405161190d929190613266565b60405180910390a461192481600087878787612067565b5050505050565b6001816000016000828254019250508190555050565b600560009054906101000a900473ffffffffffffffffffffffffffffffffffffffff1673ffffffffffffffffffffffffffffffffffffffff1663a9059cbb83836040518363ffffffff1660e01b815260040161199e929190612f2c565b602060405180830381600087803b1580156119b857600080fd5b505af11580156119cc573d6000803e3d6000fd5b505050506040513d601f19601f820116820180604052508101906119f09190612879565b505050565b8060029080519060200190611a0b929190612271565b5050565b8173ffffffffffffffffffffffffffffffffffffffff168373ffffffffffffffffffffffffffffffffffffffff161415611a7e576040517f08c379a0000000000000000000000000000000000000000000000000000000008152600401611a75906131ab565b60405180910390fd5b80600160008573ffffffffffffffffffffffffffffffffffffffff1673ffffffffffffffffffffffffffffffffffffffff16815260200190815260200160002060008473ffffffffffffffffffffffffffffffffffffffff1673ffffffffffffffffffffffffffffffffffffffff16815260200190815260200160002060006101000a81548160ff0219169083151502179055508173ffffffffffffffffffffffffffffffffffffffff168373ffffffffffffffffffffffffffffffffffffffff167f17307eab39ab6107e8899845ad3d59bd9653f200f220920489ca2b5937696c3183604051611b6f9190612fae565b60405180910390a3505050565b600073ffffffffffffffffffffffffffffffffffffffff168473ffffffffffffffffffffffffffffffffffffffff161415611bec576040517f08c379a0000000000000000000000000000000000000000000000000000000008152600401611be3906130cb565b60405180910390fd5b6000611bf6611188565b9050611c16818787611c0788611fed565b611c1088611fed565b87611dfe565b600080600086815260200190815260200160002060008873ffffffffffffffffffffffffffffffffffffffff1673ffffffffffffffffffffffffffffffffffffffff16815260200190815260200160002054905083811015611cad576040517f08c379a0000000000000000000000000000000000000000000000000000000008152600401611ca49061314b565b60405180910390fd5b83810360008087815260200190815260200160002060008973ffffffffffffffffffffffffffffffffffffffff1673ffffffffffffffffffffffffffffffffffffffff168152602001908152602001600020819055508360008087815260200190815260200160002060008873ffffffffffffffffffffffffffffffffffffffff1673ffffffffffffffffffffffffffffffffffffffff1681526020019081526020016000206000828254611d6291906133f5565b925050819055508573ffffffffffffffffffffffffffffffffffffffff168773ffffffffffffffffffffffffffffffffffffffff168373ffffffffffffffffffffffffffffffffffffffff167fc3d58168c5ae7397731d063d5bbf3d657854427343f4c083240f7aacaa2d0f628888604051611ddf929190613266565b60405180910390a4611df5828888888888612067565b50505050505050565b505050505050565b611e258473ffffffffffffffffffffffffffffffffffffffff1661224e565b15611fe5578373ffffffffffffffffffffffffffffffffffffffff1663bc197c8187878686866040518663ffffffff1660e01b8152600401611e6b959493929190612e6a565b602060405180830381600087803b158015611e8557600080fd5b505af1925050508015611eb657506040513d601f19601f82011682018060405250810190611eb391906128d3565b60015b611f5c57611ec2613788565b806308c379a01415611f1f5750611ed7613dc7565b80611ee25750611f21565b806040517f08c379a0000000000000000000000000000000000000000000000000000000008152600401611f169190612fc9565b60405180910390fd5b505b6040517f08c379a0000000000000000000000000000000000000000000000000000000008152600401611f5390612feb565b60405180910390fd5b63bc197c8160e01b7bffffffffffffffffffffffffffffffffffffffffffffffffffffffff1916817bffffffffffffffffffffffffffffffffffffffffffffffffffffffff191614611fe3576040517f08c379a0000000000000000000000000000000000000000000000000000000008152600401611fda9061300b565b60405180910390fd5b505b505050505050565b60606000600167ffffffffffffffff81111561200c5761200b613759565b5b60405190808252806020026020018201604052801561203a5781602001602082028036833780820191505090505b50905082816000815181106120525761205161372a565b5b60200260200101818152505080915050919050565b6120868473ffffffffffffffffffffffffffffffffffffffff1661224e565b15612246578373ffffffffffffffffffffffffffffffffffffffff1663f23a6e6187878686866040518663ffffffff1660e01b81526004016120cc959493929190612ed2565b602060405180830381600087803b1580156120e657600080fd5b505af192505050801561211757506040513d601f19601f8201168201806040525081019061211491906128d3565b60015b6121bd57612123613788565b806308c379a014156121805750612138613dc7565b806121435750612182565b806040517f08c379a00000000000000000000000000000000000000000000000000000000081526004016121779190612fc9565b60405180910390fd5b505b6040517f08c379a00000000000000000000000000000000000000000000000000000000081526004016121b490612feb565b60405180910390fd5b63f23a6e6160e01b7bffffffffffffffffffffffffffffffffffffffffffffffffffffffff1916817bffffffffffffffffffffffffffffffffffffffffffffffffffffffff191614612244576040517f08c379a000000000000000000000000000000000000000000000000000000000815260040161223b9061300b565b60405180910390fd5b505b505050505050565b6000808273ffffffffffffffffffffffffffffffffffffffff163b119050919050565b82805461227d906135c0565b90600052602060002090601f01602090048101928261229f57600085556122e6565b82601f106122b857805160ff19168380011785556122e6565b828001600101855582156122e6579182015b828111156122e55782518255916020019190600101906122ca565b5b5090506122f391906122f7565b5090565b5b808211156123105760008160009055506001016122f8565b5090565b6000612327612322846132b4565b61328f565b9050808382526020820190508285602086028201111561234a576123496137af565b5b60005b8581101561237a57816123608882612478565b84526020840193506020830192505060018101905061234d565b5050509392505050565b6000612397612392846132e0565b61328f565b905080838252602082019050828560208602820111156123ba576123b96137af565b5b60005b858110156123ea57816123d08882612599565b8452602084019350602083019250506001810190506123bd565b5050509392505050565b60006124076124028461330c565b61328f565b905082815260208101848484011115612423576124226137b4565b5b61242e84828561357e565b509392505050565b60006124496124448461333d565b61328f565b905082815260208101848484011115612465576124646137b4565b5b61247084828561357e565b509392505050565b60008135905061248781613e5d565b92915050565b600082601f8301126124a2576124a16137aa565b5b81356124b2848260208601612314565b91505092915050565b600082601f8301126124d0576124cf6137aa565b5b81356124e0848260208601612384565b91505092915050565b6000813590506124f881613e74565b92915050565b60008151905061250d81613e74565b92915050565b60008135905061252281613e8b565b92915050565b60008151905061253781613e8b565b92915050565b600082601f830112612552576125516137aa565b5b81356125628482602086016123f4565b91505092915050565b600082601f8301126125805761257f6137aa565b5b8135612590848260208601612436565b91505092915050565b6000813590506125a881613ea2565b92915050565b6000602082840312156125c4576125c36137be565b5b60006125d284828501612478565b91505092915050565b600080604083850312156125f2576125f16137be565b5b600061260085828601612478565b925050602061261185828601612478565b9150509250929050565b600080600080600060a08688031215612637576126366137be565b5b600061264588828901612478565b955050602061265688828901612478565b945050604086013567ffffffffffffffff811115612677576126766137b9565b5b612683888289016124bb565b935050606086013567ffffffffffffffff8111156126a4576126a36137b9565b5b6126b0888289016124bb565b925050608086013567ffffffffffffffff8111156126d1576126d06137b9565b5b6126dd8882890161253d565b9150509295509295909350565b600080600080600060a08688031215612706576127056137be565b5b600061271488828901612478565b955050602061272588828901612478565b945050604061273688828901612599565b935050606061274788828901612599565b925050608086013567ffffffffffffffff811115612768576127676137b9565b5b6127748882890161253d565b9150509295509295909350565b60008060408385031215612798576127976137be565b5b60006127a685828601612478565b92505060206127b7858286016124e9565b9150509250929050565b600080604083850312156127d8576127d76137be565b5b60006127e685828601612478565b92505060206127f785828601612599565b9150509250929050565b60008060408385031215612818576128176137be565b5b600083013567ffffffffffffffff811115612836576128356137b9565b5b6128428582860161248d565b925050602083013567ffffffffffffffff811115612863576128626137b9565b5b61286f858286016124bb565b9150509250929050565b60006020828403121561288f5761288e6137be565b5b600061289d848285016124fe565b91505092915050565b6000602082840312156128bc576128bb6137be565b5b60006128ca84828501612513565b91505092915050565b6000602082840312156128e9576128e86137be565b5b60006128f784828501612528565b91505092915050565b600060208284031215612916576129156137be565b5b600082013567ffffffffffffffff811115612934576129336137b9565b5b6129408482850161256b565b91505092915050565b60006020828403121561295f5761295e6137be565b5b600061296d84828501612599565b91505092915050565b6000806040838503121561298d5761298c6137be565b5b600061299b85828601612599565b92505060206129ac858286016124e9565b9150509250929050565b60006129c28383612def565b60208301905092915050565b6129d78161350a565b82525050565b60006129e88261337e565b6129f281856133ac565b93506129fd8361336e565b8060005b83811015612a2e578151612a1588826129b6565b9750612a208361339f565b925050600181019050612a01565b5085935050505092915050565b612a448161351c565b82525050565b6000612a5582613389565b612a5f81856133bd565b9350612a6f81856020860161358d565b612a78816137c3565b840191505092915050565b6000612a8e82613394565b612a9881856133d9565b9350612aa881856020860161358d565b612ab1816137c3565b840191505092915050565b6000612ac782613394565b612ad181856133ea565b9350612ae181856020860161358d565b80840191505092915050565b6000612afa6034836133d9565b9150612b05826137e1565b604082019050919050565b6000612b1d6028836133d9565b9150612b2882613830565b604082019050919050565b6000612b40602b836133d9565b9150612b4b8261387f565b604082019050919050565b6000612b636026836133d9565b9150612b6e826138ce565b604082019050919050565b6000612b866024836133d9565b9150612b918261391d565b604082019050919050565b6000612ba96023836133d9565b9150612bb48261396c565b604082019050919050565b6000612bcc6029836133d9565b9150612bd7826139bb565b604082019050919050565b6000612bef6025836133d9565b9150612bfa82613a0a565b604082019050919050565b6000612c126032836133d9565b9150612c1d82613a59565b604082019050919050565b6000612c35601a836133d9565b9150612c4082613aa8565b602082019050919050565b6000612c586023836133d9565b9150612c6382613ad1565b604082019050919050565b6000612c7b602a836133d9565b9150612c8682613b20565b604082019050919050565b6000612c9e6005836133ea565b9150612ca982613b6f565b600582019050919050565b6000612cc16020836133d9565b9150612ccc82613b98565b602082019050919050565b6000612ce46000836133ce565b9150612cef82613bc1565b600082019050919050565b6000612d07601a836133d9565b9150612d1282613bc4565b602082019050919050565b6000612d2a6029836133d9565b9150612d3582613bed565b604082019050919050565b6000612d4d6029836133d9565b9150612d5882613c3c565b604082019050919050565b6000612d70601b836133d9565b9150612d7b82613c8b565b602082019050919050565b6000612d936028836133d9565b9150612d9e82613cb4565b604082019050919050565b6000612db66021836133d9565b9150612dc182613d03565b604082019050919050565b6000612dd96059836133ea565b9150612de482613d52565b605982019050919050565b612df881613574565b82525050565b612e0781613574565b82525050565b6000612e1882612cd7565b9150819050919050565b6000612e2d82612dcc565b9150612e398284612abc565b9150612e4482612c91565b915081905092915050565b6000602082019050612e6460008301846129ce565b92915050565b600060a082019050612e7f60008301886129ce565b612e8c60208301876129ce565b8181036040830152612e9e81866129dd565b90508181036060830152612eb281856129dd565b90508181036080830152612ec68184612a4a565b90509695505050505050565b600060a082019050612ee760008301886129ce565b612ef460208301876129ce565b612f016040830186612dfe565b612f0e6060830185612dfe565b8181036080830152612f208184612a4a565b90509695505050505050565b6000604082019050612f4160008301856129ce565b612f4e6020830184612dfe565b9392505050565b60006020820190508181036000830152612f6f81846129dd565b905092915050565b60006040820190508181036000830152612f9181856129dd565b90508181036020830152612fa581846129dd565b90509392505050565b6000602082019050612fc36000830184612a3b565b92915050565b60006020820190508181036000830152612fe38184612a83565b905092915050565b6000602082019050818103600083015261300481612aed565b9050919050565b6000602082019050818103600083015261302481612b10565b9050919050565b6000602082019050818103600083015261304481612b33565b9050919050565b6000602082019050818103600083015261306481612b56565b9050919050565b6000602082019050818103600083015261308481612b79565b9050919050565b600060208201905081810360008301526130a481612b9c565b9050919050565b600060208201905081810360008301526130c481612bbf565b9050919050565b600060208201905081810360008301526130e481612be2565b9050919050565b6000602082019050818103600083015261310481612c05565b9050919050565b6000602082019050818103600083015261312481612c28565b9050919050565b6000602082019050818103600083015261314481612c4b565b9050919050565b6000602082019050818103600083015261316481612c6e565b9050919050565b6000602082019050818103600083015261318481612cb4565b9050919050565b600060208201905081810360008301526131a481612cfa565b9050919050565b600060208201905081810360008301526131c481612d1d565b9050919050565b600060208201905081810360008301526131e481612d40565b9050919050565b6000602082019050818103600083015261320481612d63565b9050919050565b6000602082019050818103600083015261322481612d86565b9050919050565b6000602082019050818103600083015261324481612da9565b9050919050565b60006020820190506132606000830184612dfe565b92915050565b600060408201905061327b6000830185612dfe565b6132886020830184612dfe565b9392505050565b60006132996132aa565b90506132a582826135f2565b919050565b6000604051905090565b600067ffffffffffffffff8211156132cf576132ce613759565b5b602082029050602081019050919050565b600067ffffffffffffffff8211156132fb576132fa613759565b5b602082029050602081019050919050565b600067ffffffffffffffff82111561332757613326613759565b5b613330826137c3565b9050602081019050919050565b600067ffffffffffffffff82111561335857613357613759565b5b613361826137c3565b9050602081019050919050565b6000819050602082019050919050565b600081519050919050565b600081519050919050565b600081519050919050565b6000602082019050919050565b600082825260208201905092915050565b600082825260208201905092915050565b600081905092915050565b600082825260208201905092915050565b600081905092915050565b600061340082613574565b915061340b83613574565b9250827fffffffffffffffffffffffffffffffffffffffffffffffffffffffffffffffff038211156134405761343f61369d565b5b828201905092915050565b600061345682613574565b915061346183613574565b925082613471576134706136cc565b5b828204905092915050565b600061348782613574565b915061349283613574565b9250817fffffffffffffffffffffffffffffffffffffffffffffffffffffffffffffffff04831182151516156134cb576134ca61369d565b5b828202905092915050565b60006134e182613574565b91506134ec83613574565b9250828210156134ff576134fe61369d565b5b828203905092915050565b600061351582613554565b9050919050565b60008115159050919050565b60007fffffffff0000000000000000000000000000000000000000000000000000000082169050919050565b600073ffffffffffffffffffffffffffffffffffffffff82169050919050565b6000819050919050565b82818337600083830152505050565b60005b838110156135ab578082015181840152602081019050613590565b838111156135ba576000848401525b50505050565b600060028204905060018216806135d857607f821691505b602082108114156135ec576135eb6136fb565b5b50919050565b6135fb826137c3565b810181811067ffffffffffffffff8211171561361a57613619613759565b5b80604052505050565b600061362e82613574565b91507fffffffffffffffffffffffffffffffffffffffffffffffffffffffffffffffff8214156136615761366061369d565b5b600182019050919050565b600061367782613574565b915061368283613574565b925082613692576136916136cc565b5b828206905092915050565b7f4e487b7100000000000000000000000000000000000000000000000000000000600052601160045260246000fd5b7f4e487b7100000000000000000000000000000000000000000000000000000000600052601260045260246000fd5b7f4e487b7100000000000000000000000000000000000000000000000000000000600052602260045260246000fd5b7f4e487b7100000000000000000000000000000000000000000000000000000000600052603260045260246000fd5b7f4e487b7100000000000000000000000000000000000000000000000000000000600052604160045260246000fd5b600060033d11156137a75760046000803e6137a46000516137d4565b90505b90565b600080fd5b600080fd5b600080fd5b600080fd5b600080fd5b6000601f19601f8301169050919050565b60008160e01c9050919050565b7f455243313135353a207472616e7366657220746f206e6f6e204552433131353560008201527f526563656976657220696d706c656d656e746572000000000000000000000000602082015250565b7f455243313135353a204552433131353552656365697665722072656a6563746560008201527f6420746f6b656e73000000000000000000000000000000000000000000000000602082015250565b7f455243313135353a2062616c616e636520717565727920666f7220746865207a60008201527f65726f2061646472657373000000000000000000000000000000000000000000602082015250565b7f4f776e61626c653a206e6577206f776e657220697320746865207a65726f206160008201527f6464726573730000000000000000000000000000000000000000000000000000602082015250565b7f455243313135353a206275726e20616d6f756e7420657863656564732062616c60008201527f616e636500000000000000000000000000000000000000000000000000000000602082015250565b7f43656c744d696e7465723a20696e76616c696420776974686472617720616d6f60008201527f756e740000000000000000000000000000000000000000000000000000000000602082015250565b7f455243313135353a2063616c6c6572206973206e6f74206f776e6572206e6f7260008201527f20617070726f7665640000000000000000000000000000000000000000000000602082015250565b7f455243313135353a207472616e7366657220746f20746865207a65726f20616460008201527f6472657373000000000000000000000000000000000000000000000000000000602082015250565b7f455243313135353a207472616e736665722063616c6c6572206973206e6f742060008201527f6f776e6572206e6f7220617070726f7665640000000000000000000000000000602082015250565b7f43656c744d696e7465723a206578636363656420616d6f756e74000000000000600082015250565b7f455243313135353a206275726e2066726f6d20746865207a65726f206164647260008201527f6573730000000000000000000000000000000000000000000000000000000000602082015250565b7f455243313135353a20696e73756666696369656e742062616c616e636520666f60008201527f72207472616e7366657200000000000000000000000000000000000000000000602082015250565b7f2e6a736f6e000000000000000000000000000000000000000000000000000000600082015250565b7f4f776e61626c653a2063616c6c6572206973206e6f7420746865206f776e6572600082015250565b50565b7f43656c744d696e7465723a20696e76616c696420616d6f756e74000000000000600082015250565b7f455243313135353a2073657474696e6720617070726f76616c2073746174757360008201527f20666f722073656c660000000000000000000000000000000000000000000000602082015250565b7f455243313135353a206163636f756e747320616e6420696473206c656e67746860008201527f206d69736d617463680000000000000000000000000000000000000000000000602082015250565b7f43656c744d696e7465723a206e6f7420656e6f7567682066756e640000000000600082015250565b7f455243313135353a2069647320616e6420616d6f756e7473206c656e6774682060008201527f6d69736d61746368000000000000000000000000000000000000000000000000602082015250565b7f455243313135353a206d696e7420746f20746865207a65726f2061646472657360008201527f7300000000000000000000000000000000000000000000000000000000000000602082015250565b7f68747470733a2f2f6261667962656961727434696677696967716c6b77366d3760008201527f6d6d756d65746c71756f7a7a616c6a337462746268646f66777376616f696d3660208201527f7a6e752e697066732e6e667473746f726167652e6c696e6b2f00000000000000604082015250565b600060443d1015613dd757613e5a565b613ddf6132aa565b60043d036004823e80513d602482011167ffffffffffffffff82111715613e07575050613e5a565b808201805167ffffffffffffffff811115613e255750505050613e5a565b80602083010160043d038501811115613e42575050505050613e5a565b613e51826020018501866135f2565b82955050505050505b90565b613e668161350a565b8114613e7157600080fd5b50565b613e7d8161351c565b8114613e8857600080fd5b50565b613e9481613528565b8114613e9f57600080fd5b50565b613eab81613574565b8114613eb657600080fd5b5056fea2646970667358221220727730d6a4f81f405956f0ccd71fc9a40a1d904acdcfccf4d09ae57b35c112c864736f6c6343000807003368747470733a2f2f6261667962656961727434696677696967716c6b77366d376d6d756d65746c71756f7a7a616c6a337462746268646f66777376616f696d367a6e752e697066732e6e667473746f726167652e6c696e6b2f",
  "linkReferences": {},
  "deployedLinkReferences": {}
}